:020000040000FA
:100000000C9464000C948C000C948C000C94930B56
:100010000C94930B0C94930B0C948C000C9450093F
:100020000C948C000C948C000C948C000C948C0020
:100030000C948C000C948C000C948C000C948C0010
:100040000C942A0A0C948C000C94F8090C94D20994
:100050000C948C000C948C000C948C000C948C00F0
:100060000C94740A0C948C000000000024002700FB
:100070002A0000000008000201000003040700003D
:1000800000000000000002000000002300260029FC
:100090000000000000250028002B000404040404D4
:1000A0000404040202020202020303030303030125
:1000B00002040810204080010204081020010204FC
:1000C000081020000B0C661211241FBECFEFD8E0E1
:1000D000DEBFCDBF14E0A0E0B1E0E2EFF5E202C088
:1000E00005900D92A83EB107D9F727E0A8EEB4E03D
:1000F00001C01D92AD30B207E1F710E0C3E6D0E0D9
:1001000004C02197FE010E94C312C236D107C9F76D
:100110000E94240D0C94EC120C940000DF92EF92DC
:10012000FF920F931F93CF93DF93EC018091E8062A
:100130009091E9066981DC01ED91FC910190F081DB
:10014000E02D09958091E8069091E906DC01ED919A
:10015000FC910190F081E02D688109958091E8067D
:100160009091E906DC01ED91FC910190F081E02D88
:100170006A8109958091E8069091E906DC01ED918C
:10018000FC910190F081E02D6B8109958091E8064A
:100190009091E906DC01ED91FC910190F081E02D58
:1001A0006C8109958091E8069091E906DC01ED915A
:1001B000FC910190F081E02D6D8109958091E80618
:1001C0009091E906DC01ED91FC910190F081E02D28
:1001D0006E8109950F8118850E5F1F4F8091E8068B
:1001E0009091E906E12EFF24DC01ED91FC91019054
:1001F000F081E02D6E2D09958091E8069091E90639
:10020000DC01ED91FC910190F081E02D602F0995CA
:100210000E0D1F2D111D8E81080F111DD12C8091E7
:10022000E8069091E906DC01ED91FC910190F081E6
:10023000E02DED2CF12C2F813885E216F30660F4C9
:10024000EC0EFD1ED70119966C910995F701818579
:10025000080F111DD394E3CF612F09958091E80613
:100260009091E906DC01ED91FC910190F081E02D87
:10027000602FDF91CF911F910F91FF90EF90DF9052
:10028000099408950895AF92BF92CF92DF92EF92B2
:10029000FF920F931F93CF93DF936C017B018B0130
:1002A000040F151FEB015E01AE18BF08C017D10780
:1002B00059F06991D601ED91FC910190F081E02D0A
:1002C000C6010995892B79F7C501DF91CF911F915F
:1002D0000F91FF90EF90DF90CF90BF90AF90089577
:1002E000FC01538D448D252F30E0842F90E0821B3C
:1002F000930B541710F0CF96089501970895FC01C1
:10030000918D828D981761F0A28DAE0FBF2FB11D18
:100310005D968C91928D9F5F9F73928F90E0089570
:100320008FEF9FEF0895FC01918D828D981731F02A
:10033000828DE80FF11D858D90E008958FEF9FEF7E
:100340000895FC01918D228D892F90E0805C9F4F54
:10035000821B91098F739927089581E096E00E948E
:10036000A10121E0892B09F420E0822F089580E08B
:1003700090E0892B29F00E94AD0181110C940000BE
:100380000895FC01A48DA80FB92FB11DA35ABF4F2A
:100390002C91848D90E001968F739927848FA68984
:1003A000B7892C93A089B1898C91837080648C93D8
:1003B000938D848D981306C00288F389E02D808187
:1003C0008F7D80830895EF92FF920F931F93CF93B9
:1003D000DF93EC0181E0888F9B8D8C8D98131AC080
:1003E000E889F989808185FF15C09FB7F894EE8967
:1003F000FF896083E889F9898081837080648083C4
:100400009FBF81E090E0DF91CF911F910F91FF900E
:10041000EF900895F62E0B8D10E00F5F1F4F0F73B6
:100420001127E02E8C8D8E110CC00FB607FCFACF71
:10043000E889F989808185FFF5CFCE010E94C1014D
:10044000F1CFEB8DEC0FFD2FF11DE35AFF4FF08242
:100450009FB7F8940B8FEA89FB8980818062CFCFA8
:10046000CF93DF93EC01888D8823B9F0AA89BB89EB
:10047000E889F9898C9185FD03C0808186FD0DC0D6
:100480000FB607FCF7CF8C9185FFF2CF808185FFF7
:10049000EDCFCE010E94C101E9CFDF91CF91089548
:1004A00090E0FC01EE58FF4F2491FC01E155FF4F15
:1004B0003491FC01E556FF4FE491EE23C9F022236D
:1004C00039F0233001F1A8F4213019F1223029F15B
:1004D000F0E0EE0FFF1FEF56FF4FA591B4918FB7DD
:1004E000F894EC91611126C030953E233C938FBF68
:1004F00008952730A9F02830C9F0243049F78091B9
:1005000080008F7D03C0809180008F778093800072
:10051000DFCF84B58F7784BDDBCF84B58F7DFBCFF4
:100520008091B0008F778093B000D2CF8091B000DF
:100530008F7DF9CF3E2BDACFCF93DF9390E0FC0194
:10054000E155FF4F249185569F4FFC0184918823EC
:10055000D1F090E0880F991FFC01E859FF4FA59159
:10056000B491FC01EF56FF4FC591D49161110EC0BB
:100570009FB7F8948C91E22FE0958E238C9328817D
:10058000E223E8839FBFDF91CF9108958FB7F8945E
:10059000EC91E22BEC938FBFF6CF4F925F926F926C
:1005A0007F928F929F92AF92BF92CF92DF92EF9203
:1005B000FF920F931F93CF938C016A017B0180916F
:1005C0000001883099F08F3F09F453C0CF911F91FB
:1005D0000F91FF90EF90DF90CF90BF90AF909F90E2
:1005E0008F907F906F905F904F900895E6E8F0E0D5
:1005F000C491C7FDEBCF61E088E00E949C02280116
:10060000712C612CCC23F1F0980150E040E0C23015
:1006100009F09EC028013A0160E970ED83E090E0A6
:100620000E94A41249015A0181E0881A9108A10888
:10063000B10893E08FEF88169104A104B10409F08A
:100640000CF4DFC068E478EE81E090E0A301920151
:100650000E94A41249015A0181E0881A9108A10858
:10066000B10894E0C111CDC085B5887F836085BD98
:1006700084C088E080930001E6E8F0E0C491CF3FB9
:1006800009F4A4CFC13021F150F0C23009F43EC0CA
:10069000C7FD9CCF61E088E00E949C02B5CF14BCEE
:1006A00015BC84B5826084BD85B5816085BDE3EAF3
:1006B000F0E0E491F0E0EE0FFF1FEF56FF4F859161
:1006C0009491E7EBF0E0E491E093F405C0E093CF80
:1006D0001092800010928100809181008860809348
:1006E000810080918100816080938100E3EAF0E0E5
:1006F000E491F0E0EE0FFF1FEF56FF4F85919491CC
:10070000E7EBF0E0E491E093F30575CF1092B000D1
:100710001092B1008091B00082608093B00080910F
:10072000B10081608093B100E3EAF0E0E491F0E091
:10073000EE0FFF1FEF56FF4F859194919093F205B6
:100740008093F105E7EBF0E0E491E093F00553CFFF
:1007500060E072E18AE790E00E94A41249015A0128
:1007600081E0881A9108A108B108C13031F4809164
:100770008100887F816080938100D801AA0FBB1F10
:10078000A70196010E94C91228EE33E040E050E034
:100790000E948212C13099F0C23019F1C11116CFF6
:1007A00087BC2093FD053093FE054093FF055093D1
:1007B000000680916E00826080936E0007CF909259
:1007C0008900809288002093F9053093FA054093C0
:1007D000FB055093FC0580916F00826080936F0051
:1007E000F5CE8092B3002093F5053093F605409343
:1007F000F7055093F8058091700082608093700037
:10080000E5CE8091B100887F892B8093B100B5CF70
:100810003FB7F8948091DF059091E005A091E10544
:10082000B091E20526B5A89B05C02F3F19F00196AF
:10083000A11DB11D3FBFBA2FA92F982F8827BC013A
:10084000CD01620F711D811D911D42E0660F771F62
:10085000881F991F4A95D1F708958F929F92AF9262
:10086000BF92CF92DF92EF92FF924B015C010E9408
:1008700008046B017C010E9408046C197D098E0933
:100880009F09683E734081059105A8F321E0821A13
:100890009108A108B10888EEC80E83E0D81EE11CBB
:1008A000F11C81149104A104B10429F7FF90EF9089
:1008B000DF90CF90BF90AF909F908F900895EF9270
:1008C000FF920F931F93CF93DF93EC01F12CE12C58
:1008D00010E000E08091E8069091E906DC01ED91DE
:1008E000FC910084F185E02D0995892B99F461E054
:1008F00070E080E090E00E942D04BFEFEB1AFB0A4D
:1009000088EEE81683E0F80628F38FEF37C002E0A0
:1009100010E0E0CF8091E8069091E906DC01ED91CE
:10092000FC910284F385E02D09950930110508F04A
:100930003CC0F801E256FB4F0C94C312A704B50467
:10094000C504C504C504C504CA04CC04CF048F3E45
:1009500009F0C0CF18828983C8010196065F1F4F36
:100960000034110550F48C01B5CF28813981282B32
:100970003983288321303F4E51F28EEFDF91CF91A2
:100980001F910F91FF90EF900895FE01E00FF11F6E
:100990008083E2CF8E83E0CF1F828887DDCF2F81D7
:1009A0003885282B38872F83D7CFFE01E00FF11F22
:1009B00080832F813885C80108978217930761F6D5
:1009C00080E0DCCF089520916905260F3327331F7F
:1009D00021323105ECF42091B205FC0190E080E079
:1009E000243069F082E00895A09169052191AC015D
:1009F000475B5A4FA40FB52FB11D2C930196861754
:100A000098F380916905680F6093690580E0089507
:100A100081E008951092B20581E08093B1051092B3
:100A20008C0561E082E10E94500261E083E10E9456
:100A30005002E9EBF0E080818E7F808380818D7FA2
:100A4000808388E48093B80085E48093BC00089597
:100A5000CF93DF9391E0909348058823B9F0C0913C
:100A6000B800D091BA008091BC008A7B8093BC0012
:100A700060E082E10E94500260E083E10E94500247
:100A80000E940A05D093BA00C093B800DF91CF91BD
:100A900008950895E091EE058091ED05E81730F492
:100AA000F0E0E85DFA4F808190E008958FEF9FEFCE
:100AB00008959091EE058091ED052FEF3FEF981787
:100AC00048F4E92FF0E0E85DFA4F208130E09F5FC5
:100AD0009093EE05C90108958091ED059091EE0582
:100AE000891B990B0895CF92DF92EF92FF920F939B
:100AF0001F93CF93DF937C01CB018A012091B8052E
:100B0000222389F0EB016B01C40ED51ECC15DD0547
:100B100069F06991D701ED91FC910190F081E02D90
:100B2000C7010995F3CF642F0E94E304C801DF9148
:100B3000CF911F910F91FF90EF90DF90CF9008958C
:100B4000CF93DF931F92CDB7DEB769832091B805AD
:100B50002223F9F02091EB05203258F021E030E01B
:100B6000FC013383228390E080E00F90DF91CF91EE
:100B700008958091EC05E82FF0E0E754FA4F998151
:100B800090838F5F8093EC058093EB0581E090E08C
:100B9000ECCF61E0CE0101960E94E304F7CFCF9243
:100BA000DF92EF92FF920F931F93CF93DF93FC019D
:100BB000C48121E02093B805C093D9051092EC05BB
:100BC0001092EB058385682B8EE996E00E94A005C4
:100BD000D091EB05D13208F092C00E9408046B015D
:100BE0007C018091B205811165C082E08093B205DD
:100BF00081E08093B1058FEF8093B0051092AF052F
:100C0000D093AE05A9EBB5E0EEE8F5E080E0D813AF
:100C100085C010928D0580918D05CC0FC82BC09397
:100C20008D0580918C05813009F07CC010928C0577
:100C30000E9408046B017C0180918D058093BB00AC
:100C40008091B4059091B505A091B605B091B70516
:100C5000892B8A2B8B2B99F00E9408040091B405F4
:100C60001091B5052091B6053091B7056C197D0935
:100C70008E099F090617170728073907E0F18091A9
:100C8000BC0083FDD9CF85EC8093BC000E94080492
:100C90006B017C018091B205823009F445C08091DE
:100CA000B0058F3F61F18091B005803241F18091B4
:100CB000B00525C08091B4059091B505A091B60509
:100CC000B091B705892B8A2B8B2B09F48ACF0E9410
:100CD00008040091B4051091B5052091B605309136
:100CE000B7056C197D098E099F0906171707280794
:100CF000390708F076CF8091B3050E94280510923D
:100D0000EC051092EB051092B805DF91CF911F9181
:100D10000F91FF90EF90DF90CF9008959D91919368
:100D20008F5F75CF85EEB0CF8091B4059091B505FA
:100D3000A091B605B091B705892B8A2B8B2B09F4AE
:100D4000A9CF0E9408040091B4051091B505209127
:100D5000B6053091B7056C197D098E099F090617F4
:100D600017072807390708F095CFC5CF2091E5056B
:100D70003091E6052817390771F49091E3058091C9
:100D8000E405981741F0E091E305F0E0E851FB4FEE
:100D9000808190E008958FEF9FEF0895EF92FF928A
:100DA0000F931F93CF93DF93DC015C96ED90FC9043
:100DB0005D97E114F10479F481E090E013969C933F
:100DC0008E93129790E080E0DF91CF911F910F9169
:100DD000FF90EF9008955196ED91FC9152975096A7
:100DE0008C915097982F90950FB75E962C915E97A7
:100DF000122F127021FD6095F8942081112319F1B2
:100E0000282B2083E7012197F1F728E0462F50E0B7
:100E1000308160FF1AC0382B3083E7012197F1F74A
:100E2000BA0175956795215089F7112381F080816A
:100E3000892380830FBF5C968D919C910197F1F778
:100E400081E090E0C1CF2923DCCF3923E5CF908129
:100E5000892BEFCF2091E5053091E605281739075A
:100E600061F48091E4052091E30590E0805C9F4F60
:100E7000821B91098F739927089590E080E008956F
:100E80002091E5053091E60528173907B9F49091CE
:100E9000E3058091E405981789F0E091E305F0E01F
:100EA000E851FB4F80812091E30530E02F5F3F4FF9
:100EB0002F7333272093E30590E008958FEF9FEF82
:100EC000089590E080E008950F931F93CF938C01D5
:100ED000C62F0E94CF056C2F6460C8010E94CF0509
:100EE0006C2F6B7FC8010E94CF0583EC90E00197C7
:100EF000F1F7CF911F910F9108950F931F93CF9307
:100F0000DF938C01D62FC42F607F642B0E9464076F
:100F100080E1D89FB00111246C2BC801DF91CF91E3
:100F20001F910F910C94640740E061E08AEA96E01B
:100F30000E947D078BE39FE10197F1F70895CF931E
:100F4000DF93CDB7DEB728970FB6F894DEBF0FBE9C
:100F5000CDBF88E0E1E0F1E0DE01119601900D9255
:100F60008A95E1F78091B30681111AC08FEF90E066
:100F7000880F991F21E030E02C0F3D1F820F931F37
:100F8000FC016081606840E08AEA96E028960FB62E
:100F9000F894DEBF0FBECDBFDF91CF910C947D07DB
:100FA00081E0E5CF41E00E947D0781E090E0089577
:100FB000FC019B01BA0181E09FEE9183808381E077
:100FC0008683308727838FEF82838383848385831F
:100FD000A901CF0109960C94E312CF93DF93CDB70B
:100FE000DEB7CA54D1090FB6F894DEBF0FBECDBF2D
:100FF00081E02B968FAF2B97AE01465B5F4F61E090
:1010000070E0CE0101960E94D807CE0101960E94A1
:101010008E00CE0101960E945F0481110EC08F8167
:10102000873059F48A85C65BDF4F0FB6F894DEBF70
:101030000FBECDBFDF91CF91089581E0F4CFCF9364
:10104000DF93CDB7DEB7CB54D1090FB6F894DEBF2E
:101050000FBECDBF92E02B969FAF2B972C968FAFF4
:101060002C97AE01465B5F4F62E070E0CE010196C7
:101070000E94D807CE0101960E948E00CE010196F3
:101080000E945F0481110EC08F81873059F48A85D8
:10109000C55BDF4F0FB6F894DEBF0FBECDBFDF914B
:1010A000CF91089581E0F4CFCF93DF93CDB7DEB732
:1010B000CA54D1090FB6F894DEBF0FBECDBF8DE183
:1010C0002B968FAF2B97AE01465B5F4F61E070E0D0
:1010D000CE0101960E94D807CE0101960E948E0093
:1010E000CE0101960E945F04811117C08F81873065
:1010F000A1F48B859C859827892798279093BB0618
:101100008093BA068A85C65BDF4F0FB6F894DEBFC0
:101110000FBECDBFDF91CF91089581E0F4CFFB01E9
:1011200001900020E9F73197AF01461B570BDC0116
:10113000ED91FC910280F381E02D09948F929F92B2
:10114000AF92BF920F931F93CF93DF93CDB7DEB7CC
:10115000A1970FB6F894DEBF0FBECDBF19A24230E3
:1011600008F44AE08E010F5D1F4F842E912CB12CA4
:10117000A12CA50194010E948212E62FB901CA0197
:10118000EA3004F5E05DD801EE938D01232B242B8A
:10119000252B79F790E080E0109729F0BD0181E0E0
:1011A00096E00E948F08A1960FB6F894DEBF0FBE9E
:1011B000CDBFDF91CF911F910F91BF90AF909F90C6
:1011C0008F900895E95CDFCFCF93DF93682F70E0B5
:1011D00090E080E04AE00E949E08EC016BE471E040
:1011E00081E096E00E948F088C0F9D1FDF91CF91C8
:1011F0000895CF93DF93D0E0C0E0009731F0BC01B9
:1012000081E096E00E948F08EC016BE471E081E0E0
:1012100096E00E948F088C0F9D1FDF91CF9108955B
:101220006115710511F00C948F0890E080E008952D
:1012300085ED8093BC008091B4059091B505A09197
:10124000B605B091B7050796A11DB11D23E0B6956F
:10125000A795979587952A95D1F72091BC0024FDF5
:1012600003C01092B20508954091B4055091B505A0
:101270006091B6057091B705452B462B472B69F356
:101280000097A105B10541F02AE22A95F1F700C0C7
:101290000197A109B109E1CF8091B3050C9428050C
:1012A0001F920F920FB60F9211242F933F934F93DB
:1012B0005F936F937F938F939F93AF93BF93EF93BE
:1012C000FF938091F5059091F605A091F705B091F7
:1012D000F805892B8A2B8B2BD1F19091F005E091A9
:1012E000F105F091F2058081892780838091F505D1
:1012F0009091F605A091F705B091F805181619061A
:101300001A061B069CF48091F5059091F605A091B4
:10131000F705B091F8050197A109B1098093F5058A
:101320009093F605A093F705B093F805FF91EF9120
:10133000BF91AF919F918F917F916F915F914F91ED
:101340003F912F910F900FBE0F901F901895809195
:101350000001E6E8F0E0E4919FEF90930001E130B6
:1013600051F030F0E23069F060E00E945002DECFD0
:1013700010926E00F9CF90916F009D7F90936F0057
:10138000F3CF909170009D7F9093700091E09093C7
:10139000B0009091B100987F94609093B10010924A
:1013A000B300E2CF1F920F920FB60F9211242F932A
:1013B0003F934F935F936F937F938F939F93AF93DD
:1013C000BF93EF93FF9381E096E00E94C101FF91EC
:1013D000EF91BF91AF919F918F917F916F915F91AD
:1013E0004F913F912F910F900FBE0F901F90189526
:1013F0001F920F920FB60F9211242F938F939F93EA
:10140000EF93FF93E0911106F09112068081E09135
:101410001706F091180682FD1BC0908180911A0674
:101420008F5F8F7320911B06821741F0E0911A069F
:10143000F0E0EF5FF94F958F80931A06FF91EF91DF
:101440009F918F912F910F900FBE0F901F90189525
:101450008081F4CF1F920F920FB60F9211242F9319
:101460003F938F939F93AF93BF938091DB059091B0
:10147000DC05A091DD05B091DE053091DA0523E0B1
:10148000230F2D3758F50196A11DB11D2093DA05C4
:101490008093DB059093DC05A093DD05B093DE051A
:1014A0008091DF059091E005A091E105B091E20502
:1014B0000196A11DB11D8093DF059093E005A093D7
:1014C000E105B093E205BF91AF919F918F913F915C
:1014D0002F910F900FBE0F901F90189526E8230FA5
:1014E0000296A11DB11DD2CF1F920F920FB60F927F
:1014F00011242F933F934F935F936F937F938F9319
:101500009F93AF93BF93EF93FF938091B900887F30
:10151000803609F44AC0F0F5883209F4A7C018F5FE
:10152000803109F49BC0B8F4882309F4F9C08830ED
:1015300009F494C0FF91EF91BF91AF919F918F916A
:101540007F916F915F914F913F912F910F900FBEBF
:101550000F901F901895883109F488C0803251F798
:101560008093B00514C0803409F49DC040F48033EA
:10157000B9F38833F9F68093B00585ECB0C08035B7
:1015800009F485C0883509F496C0883499F60E941C
:101590001809D0CF883909F48CC038F5883729F07C
:1015A00050F4883611F0803729F683E08093B20535
:1015B00010928B0557C0883809F47BC0803919F028
:1015C000803809F0B7CF80918B05803208F071C068
:1015D000E0918B0581E08E0F80938B058091BB009D
:1015E000F0E0E559FA4F80833DC0803B39F0E0F4EC
:1015F000803A09F479C0883A09F09CCF84E080935E
:10160000B20510926A0510926905E091E905F09122
:10161000EA0509958091690581110FC081E08093E9
:1016200069051092490509C0803C09F4A6CF883CA1
:1016300009F4A3CF883B09F07DCFE0916A0581E0F2
:101640008E0F80936A05F0E0E75BFA4F808180930C
:10165000BB0090916A058091690529C080918D0534
:101660008093BB0085EC8093BC0064CF9091AF0564
:101670008091AE05981758F5E091AF0581E08E0F87
:101680008093AF05F0E0E257FA4F8081E9CFE09117
:10169000AF0581E08E0F8093AF058091BB00F0E035
:1016A000E257FA4F80839091AF058091AE0598176D
:1016B000C8F285E8D8CFE091AF0581E08E0F809326
:1016C000AF058091BB00F0E0E257FA4F8083809134
:1016D000B10581115CCF81E080938C0584EA809311
:1016E000BC001092B20526CF85EC8093BC0010920E
:1016F000B20580918B05803230F4E0918B05F0E0EB
:10170000E559FA4F108260918B0570E0E091E70592
:10171000F091E8058BE695E0099510928B050ACFCC
:101720001092B00534CF1F920F920FB60F92112472
:101730002F933F934F935F936F937F938F939F93D9
:10174000AF93BF93EF93FF93E091E505F091E6052A
:10175000309749F0A685B7858585968D91FF14C091
:101760009C918923A1F4FF91EF91BF91AF919F913B
:101770008F917F916F915F914F913F912F910F903A
:101780000FBE0F901F9018959C91892361F7A38934
:10179000B4899C918589809589238C9386899789C2
:1017A0000197F1F7608D718DA685B785558538E075
:1017B00020E0CB010197F1F7822F90E09595879576
:1017C000282F4C91452309F02068315091F7868DE0
:1017D00081FD20958091E40590E001968F73992713
:1017E0003091E305381799F0A091E405B0E0A851D5
:1017F000BB4F2C938093E405828D938D0197F1F775
:10180000A389B4898C919589892B8C93ACCF868DD3
:101810008160868FF1CF109204061092030688EE45
:1018200093E0A0E0B0E08093050690930606A093B5
:101830000706B09308062DE031E0309302062093AE
:10184000010625EC30E030930E0620930D0624ECC3
:1018500030E03093100620930F0620EC30E03093F8
:1018600012062093110621EC30E0309314062093E9
:10187000130622EC30E0309316062093150626EC72
:1018800030E0309318062093170610921A06109233
:101890001B0610921C0610921D061092A1061092B3
:1018A000A0068093A2069093A306A093A406B093EB
:1018B000A5062FE131E030939F0620939E061092FB
:1018C000F1061092F0068093F2069093F306A0932F
:1018D000F406B093F5068DE391E09093EF068093C4
:1018E000EE06109205071092040710920707109257
:1018F0000607109209071092080710920B07109222
:101900000A0760910C076E7F6D7F60930C076695E8
:10191000617081E0682783E00E94500261E083E00B
:101920000E949C02E2EBF0E0E491E093FE06EEE917
:10193000F0E0E491F0E0EE0FFF1FEF56FF4F8591CE
:101940009491909300078093FF0660E082E00E94EC
:101950009C0280910C0781FD04C061E082E00E943E
:1019600050022EEE36E082E08093FA06E1EBF0E0E2
:10197000E491E093FB06EDE9F0E0E491F0E0EE0F96
:10198000FF1FE957FF4F459154915093FD06409337
:10199000FC061092BD061092BC061092BF06109273
:1019A000BE06E0E4F0E0F093C106E093C0061092BA
:1019B000C3061092C2064FEF5FEFBA014093C40610
:1019C0005093C5066093C6067093C706F093C90688
:1019D000E093C806E0E0F1EEF093CB06E093CA0690
:1019E0001092CC061092CD061092CE061092CF0621
:1019F0004093D0065093D1066093D2067093D306DD
:101A00001092ED061092EC063093EB062093EA0656
:101A10003093E9062093E8061092AD061092AC06CA
:101A200021E331E03093AB062093AA0697E290932E
:101A3000AE0690E19093B2068093B3061092B4067E
:101A400088E08093B5060895CF93DF93CDB7DEB7D6
:101A5000CF54D1090FB6F894DEBF0FBECDBF789436
:101A600084B5826084BD84B5816084BD85B58260A3
:101A700085BD85B5816085BD80916E008160809354
:101A80006E001092810080918100826080938100BD
:101A900080918100816080938100809180008160CD
:101AA000809380008091B10084608093B100809128
:101AB000B00081608093B00080917A008460809350
:101AC0007A0080917A00826080937A0080917A0017
:101AD000816080937A0080917A00806880937A0098
:101AE0001092C100E0911106F091120602E000830D
:101AF000E0910D06F0910E061082E0910F06F09134
:101B000010068FEC808310921906E0911506F09173
:101B1000160616E01083E0911306F09114068081FA
:101B200080618083E0911306F091140680818860C3
:101B30008083E0911306F091140680818068808391
:101B4000E0911306F091140680818F7D808368EE0A
:101B500073E080E090E00E942D04E091EC06F091AB
:101B6000ED06309731F1A089B1890C93A089B18934
:101B70001C92A485B5851C92A685B78580E18C93BF
:101B8000108EA489B5891C93A289B3898C91806138
:101B90008C93A289B3898C9188608C93A289B38934
:101BA0008C9180688C930288F389E02D80818F7DF1
:101BB0008083E091EA06F091EB06309709F477C054
:101BC000138E128E118E108E178A168A82E490E080
:101BD000958F848F8485863108F03DC02FE030E0FA
:101BE000378B268B20E430E0318F208F27E230E0E6
:101BF000338F228F90916800883008F48EC021E0E6
:101C00008E3008F420E081E001C0880F2A95EAF7C1
:101C1000892B8093680094852DE630E0983050F051
:101C20002BE630E09E3030F02CE630E0963110F0BC
:101C300030E020E0348B238B292F30E0983008F0FF
:101C40006EC081E001C0880F9A95EAF7858B848D7C
:101C5000958D0197F1F7828D938D892B41F14091FC
:101C6000E5055091E605E417F50709F14115510521
:101C700069F0DA0153962D913C91D9019C91DA01DA
:101C800055968C9180958923D9018C93868D8E7F72
:101C9000868F1092E4051092E305F093E605E09339
:101CA000E505A389B4898C919589892B8C9383E16F
:101CB0002B968FAF2B978091CC069091CD062091DB
:101CC000CE063091CF062C963FAF2C972D962FAF96
:101CD0002D972E969FAF2E972F968FAF2F97AE01F1
:101CE000465B5F4F65E070E0CE0101960E94D80729
:101CF000CE0101960E948E00CE0101960E945F04E3
:101D00008823D1F08EE491E00E94F90861E070E050
:101D100080E090E00E942D04F9CF84E079CF9E30DE
:101D200040F42850310981E001C0880F2A95EAF774
:101D30008DCF2E503109F7CF8F81873019F78A85E3
:101D40008111E0CF81E791E00E94F9080E945408D8
:101D50008091BA069091BB06892B09F0ECC06BE824
:101D600071E081E096E00E9410091092EE05109259
:101D7000ED051092EC051092EB050E940A0581E436
:101D800091E09093EA058093E90582E491E09093D5
:101D9000E8058093E7051092AF068091B306823084
:101DA00018F098E09093AF069091B406992339F01B
:101DB000813029F48091AF0684608093AF0662E39E
:101DC00070E080E090E00E942D046091B5068AEA00
:101DD00096E00E94CF0568EE73E080E090E00E94FC
:101DE0002D0460E38AEA96E00E9464070BE416E49F
:101DF000C8010197F1F760E38AEA96E00E94640760
:101E0000C8010197F1F760E38AEA96E00E9464074F
:101E100083E592E00197F1F760E28AEA96E00E949A
:101E200064076091AF06606240E08AEA96E00E9433
:101E30007D0784E08093B00640E06CE08AEA96E09B
:101E40000E947D070E94940782E08093B10640E0E3
:101E500066E08AEA96E00E947D0740E062E08AEA56
:101E600096E00E947D078BE39FE10197F1F788E000
:101E70008093B50660E08AEA96E00E94CF0560EFA5
:101E800071E08AEA96E00E9410090E949F076FEFB6
:101E900071E08AEA96E00E94100940E951E060E0B2
:101EA00070E084EF91E00E94CD028DE0F82E95E085
:101EB000E92E26E0D22E00E010E081E096E00E94BC
:101EC000A101892B09F4A9C081E096E00E947F015D
:101ED00099278230910509F4E5C18330910509F411
:101EE000C5C2019709F099C00E9494076BE072E0A7
:101EF0008AEA96E00E94100987E192E00E94F908C0
:101F000086E392E00E94F90881E096E00E94A10138
:101F1000892BD1F381E096E00E947F018093EF0549
:101F2000811121C00E94940761E872E08AEA96E07C
:101F30000E9410096CC088EB91E00E94F90864EDE2
:101F400071E081E096E00E9410096091BA067091FC
:101F5000BB0690E080E04AE00E949E0885EE91E09A
:101F60000E94F90802CF0E9494076CE872E08AEAA6
:101F700096E00E9410090E949F076091EF0570E0B3
:101F80006B567D4F8AEA96E00E94100968E972E07C
:101F900081E096E00E9410098091EF050E94E4081C
:101FA00064EF71E080E090E00E942D040E949407AD
:101FB00060EC72E08AEA96E00E9410090E94ED0748
:101FC000882389F08230D1F78EE593E00E94F908EA
:101FD0000E9494076BEE72E08AEA96E00E94100974
:101FE0000E949F07E5CF0E9494076EEC72E08AEA98
:101FF00096E00E9410098FED92E00E94F90881E0BE
:102000000E941F088823A9F0863009F46DC062E39E
:1020100070E080E090E00E942D040115110509F4A4
:102020004CCF0E94AD01882309F447CF0E940000E5
:1020300044CF86EF92E00E94F9080E9494076EEC6C
:1020400072E08AEA96E00E94100986E093E00E941E
:10205000F9080E94940764E173E08AEA96E00E941E
:10206000100960ED77E080E090E00E942D040E946E
:10207000ED07B82E682F81E096E00E94E301B2E000
:10208000BB12F5CF63E373E081E096E00E94100994
:102090008091EF050E94E40864EF71E080E090E039
:1020A0000E942D040E94940760EC72E08AEA96E098
:1020B0000E9410090E949F0767E373E08AEA96E096
:1020C0000E9410090E94ED07B82E682F81E096E06B
:1020D0000E94E301BB2069F082E0B812F3CF6EE505
:1020E00073E081E096E0ECCF83E293E00E94F90890
:1020F0008ECF8FED92E00E94F9080E9494076EEC5B
:1021000072E08AEA96E00E94100982E00E941F08AD
:1021100081117ACF86EF92E00E94F9080E9494071D
:102120006EEC72E08AEA96E00E94100960E473E0C7
:1021300081E096E00E9410098091EF050E94E4087A
:102140000E94940765E573E08AEA96E00E94100910
:1021500068EE73E080E090E00E942D042B96EFAED5
:102160002B97AE01465B5F4F61E070E0CE010196B8
:102170000E94D807CE0101960E948E00CE010196E2
:102180000E945F0481116CC08F81873009F068C0A4
:102190008A8590E0009709F065C080E693E00E9490
:1021A000F9080E94940760E773E08AEA96E00E94CB
:1021B000100963E373E081E096E00E9410098091CA
:1021C000EF050E94E4088091EF052B96DFAE2B9778
:1021D00091E02C969FAF2C972D961FAE2D972E96A3
:1021E0008FAF2E97AE01465B5F4F64E070E0CE018B
:1021F00001960E94D807CE0101960E948E00CE0162
:1022000001960E945F04811104C08F816A85873026
:1022100009F061E0A62EB12C81E096E00E94E30176
:10222000A114B10459F588EA93E00E94F9080E94CC
:10223000940760EB73E08AEA96E00E9410090E941E
:102240009F076EEB73E08AEA96E00E94100940E96E
:1022500051E060E070E080E293E00E94CD02D7CED2
:1022600081E097CF0A9709F0D2CE8DE793E00E94E4
:10227000F9080E94940768E973E058CEA1E0AA1615
:10228000B10409F4C4CE8CEC93E0BBE0AB16B1040E
:1022900009F42CCF88E1A816B10409F0B8CE8DEE70
:1022A00093E024CF0E94940764E074E08AEA96E009
:1022B0000E94100914E00E94ED078823C9F08230C3
:1022C00081F40E94940760E174E08AEA96E00E943B
:1022D00010090E949F0760EC72E08AEA96E00E9473
:1022E000100962E370E080E090E00E942D04E3CFEB
:1022F00081E00E941F088111F4CF2E961FAE1EAE02
:102300002E972B961FAF2B9781E02C968FAF2C9793
:102310008091C0069091C1062F969FAF2F9760962F
:102320008FAF6097AE01465B5F4F66E070E0CE0115
:1023300001960E94D807CE0101960E948E00CE0120
:1023400001960E945F048111CCCF8F81873049F6BE
:102350008B859C859827892798279093B70680932B
:10236000B6068D859E859827892798279093B9066C
:102370008093B8068A8581113DC08AE194E00E946D
:10238000F9086FE274E081E096E00E941009609124
:10239000B6067091B70690E080E04AE00E949E0881
:1023A0006AE374E081E096E00E9410096091B8064B
:1023B0007091B90690E080E04AE00E949E086BE4CC
:1023C00071E081E096E00E948F0840E951E060E012
:1023D00070E080E293E00E94CD020E9494076FE4D7
:1023E00074E08AEA96E00E9410090E949F0765E562
:1023F00074E073CF893009F074CF86E694E00E94D0
:10240000F9080E9494076BE774E08AEA96E00E945C
:1024100010090E949F0764E874E08AEA96E00E942F
:10242000100940E951E060E070E084EF91E00E9423
:10243000CD0240E253E060E070E088EE93E00E945D
:10244000CD0268EC70E080E090E00E942D0440E254
:1024500053E060E070E088E592E00E94CD0268EC15
:1024600070E080E090E00E942D043BCF0E94940732
:102470006FE874E08AEA96E00E9410098AE994E025
:102480000E94F9080E94540890E080549B4F0E94DB
:10249000F9082B96FFAE2B97AE01465B5F4F61E0CC
:1024A00070E0CE0101960E94D807CE0101960E94ED
:1024B0008E00CE0101960E945F040E949F076EEB82
:1024C00073E08AEA96E00E941009A7CD8DE391E0BF
:1024D0009093EF068093EE068091E5059091E605D6
:1024E0008E5E964071F4E0910107F09102079081B1
:1024F000809103078095892380831092E6051092CE
:10250000E5050895A1E21A2EAA1BBB1BFD010DC013
:10251000AA1FBB1FEE1FFF1FA217B307E407F50793
:1025200020F0A21BB30BE40BF50B661F771F881F6F
:10253000991F1A9469F760957095809590959B0105
:10254000AC01BD01CF010895052E97FB1EF4009448
:102550000E94BB1257FD07D00E94821207FC03D0D5
:102560004EF40C94BB1250954095309521953F4FF9
:102570004F4F5F4F089590958095709561957F4F6F
:102580008F4F9F4F0895EE0FFF1F0590F491E02DA0
:1025900009940E94D412A59F900DB49F900DA49F02
:1025A000800D911D11240895A29FB001B39FC00119
:1025B000A39F700D811D1124911DB29F700D811D6F
:1025C0001124911D0895FB01DC0102C001900D92C0
:1025D00041505040D8F7089510E0C3E6D0E004C061
:1025E000FE010E94C3122196C436D107C9F7F894A0
:1025F000FFCFFF000040001400540000000000E383
:1026000001430170013002A1017F0193010000002C
:1026100000A0057305610749056C0559054A0500C9
:10262000000000D20743016107E20400000000CE71
:10263000064301610749052A074007B6060D0A004F
:10264000446964206E6F742066696E642066696EEA
:102650006765727072696E742073656E736F722035
:102660003A2800466F756E642066696E6765727001
:1026700072696E742073656E736F72210053656E9C
:10268000736F7220646F65736E277420636F6E744E
:1026900061696E20616E792066696E67657270721D
:1026A000696E7420646174612E0057616974696E8B
:1026B0006720666F722076616C69642066696E6758
:1026C00065722E2E2E0053656E736F7220636F6ECF
:1026D0007461696E7320002074656D706C6174653F
:1026E00073005374617274696E672075702E2E2E9C
:1026F0000043686F6F7365206D6F646500456E728F
:102700006F6C6C206D6F6465005265616479207434
:102710006F20656E726F6C6C20612066696E6765F4
:10272000727072696E742100506C656173652074FB
:1027300079706520696E20746865204944202320E3
:102740002866726F6D203120746F20313237292056
:10275000796F752077616E7420746F207361766570
:1027600020746869732066696E6765722061732ED4
:102770002E2E00494420696E76616C6964005361B5
:102780007665642049440023200057616974696EAE
:102790006720666F722076616C69642066696E6777
:1027A000657220746F20656E726F6C6C206173208F
:1027B0002300506C6163652066696E676572210055
:1027C00046696E6765722063617074757265642115
:1027D00000496D6167652074616B656E00576169C2
:1027E00074696E672E2E2E00496D61676520636FD8
:1027F0006E7665727465640052656D6F76652066ED
:10280000696E6765720052656D6F76652066696EE8
:102810006765722100496D61676520746F6F206D77
:10282000657373790049442000616761696E2E2EDB
:102830002E004372656174696E67206D6F64656C0C
:1028400020666F72202300536176696E672E2E2EEC
:102850002E005072696E7473206D617463686564D4
:1028600021005072696E74206D61746368210046A6
:10287000696E6765727072696E7473206469642032
:102880006E6F74206D61746368005072696E74209D
:102890006D69736D61746368210053746F72656450
:1028A000210046696E676572207361766564210058
:1028B000506C656173652C20726573657400436F9D
:1028C000756C64206E6F742073746F726520696E0E
:1028D0002074686174206C6F636174696F6E004569
:1028E00072726F722077726974696E6720746F20DC
:1028F000666C61736800566572696679206D6F64F5
:1029000065005665726966792E2E2E00466F756ECB
:10291000642061207072696E74206D617463682137
:1029200000466F756E642049442023002077697447
:102930006820636F6E666964656E6365206F6620EC
:1029400000285E2D5E290057656C636F6D652C2035
:1029500054656E616E742100446964206E6F74204A
:1029600066696E642061206D6174636800496E76EB
:10297000616C6964210054727920616761696E211C
:102980000044656C65746520616C6C000A0A4465DE
:102990006C6574696E6720616C6C2066696E676532
:1029A000727072696E742074656D706C6174657399
:1029B00021004E756D626572206F662066696E67D4
:1029C00065727072696E74206461746120746F2026
:0A29D00064656C6574653A20000030
:107E0000112484B714BE81FFF0D085E080938100F7
:107E100082E08093C00088E18093C10086E0809377
:107E2000C20080E18093C4008EE0C9D0259A86E02C
:107E300020E33CEF91E0309385002093840096BBD3
:107E4000B09BFECF1D9AA8958150A9F7CC24DD24C4
:107E500088248394B5E0AB2EA1E19A2EF3E0BF2EE7
:107E6000A2D0813461F49FD0082FAFD0023811F036
:107E7000013811F484E001C083E08DD089C08234E0
:107E800011F484E103C0853419F485E0A6D080C0E4
:107E9000853579F488D0E82EFF2485D0082F10E0AE
:107EA000102F00270E291F29000F111F8ED06801E7
:107EB0006FC0863521F484E090D080E0DECF843638
:107EC00009F040C070D06FD0082F6DD080E0C81688
:107ED00080E7D80618F4F601B7BEE895C0E0D1E017
:107EE00062D089930C17E1F7F0E0CF16F0E7DF06D8
:107EF00018F0F601B7BEE89568D007B600FCFDCFD4
:107F0000A601A0E0B1E02C9130E011968C91119780
:107F100090E0982F8827822B932B1296FA010C0160
:107F200087BEE89511244E5F5F4FF1E0A038BF0790
:107F300051F7F601A7BEE89507B600FCFDCF97BE46
:107F4000E89526C08437B1F42ED02DD0F82E2BD052
:107F50003CD0F601EF2C8F010F5F1F4F84911BD097
:107F6000EA94F801C1F70894C11CD11CFA94CF0C13
:107F7000D11C0EC0853739F428D08EE10CD085E9AC
:107F80000AD08FE07ACF813511F488E018D01DD067
:107F900080E101D065CF982F8091C00085FFFCCF94
:107FA0009093C60008958091C00087FFFCCF809118
:107FB000C00084FD01C0A8958091C6000895E0E648
:107FC000F0E098E1908380830895EDDF803219F02E
:107FD00088E0F5DFFFCF84E1DECF1F93182FE3DFCA
:107FE0001150E9F7F2DF1F91089580E0E8DFEE27F6
:047FF000FF270994CA
:027FFE00040479
:00000001FF
