:100000000C9463000C948B000C948B000C94770A76
:100010000C94770A0C94770A0C948B000C948B0048
:100020000C948B000C948B000C948B000C948B0024
:100030000C948B000C948B000C948B000C948B0014
:100040000C942D0A0C948B000C94FB090C94D5098C
:100050000C948B000C948B000C948B000C948B00F4
:100060000C948B000C948B0000000008000201002F
:100070000003040700000000000000000000000072
:1000800023002600290000000000240027002A0089
:1000900000000000250028002B00040404040404D0
:1000A0000404020202020202030303030303010227
:1000B00004081020408001020408102001020408F6
:1000C00010203B0B760F11241FBECFEFD8E0DEBF10
:1000D000CDBF15E0A0E0B1E0E4EDFFE102C0059086
:1000E0000D92AA30B107D9F726E0AAE0B5E001C029
:1000F0001D92AB39B207E1F710E0C2E6D0E004C0D0
:100100002197FE010E94CE0FC136D107C9F70E9488
:10011000070D0C94DD0F0C940000DF92EF92FF921C
:100120000F931F93CF93DF93EC0180917006909112
:1001300071066981DC01ED91FC910190F081E02D67
:1001400009958091700690917106DC01ED91FC910A
:100150000190F081E02D6881099580917006909161
:100160007106DC01ED91FC910190F081E02D6A8136
:1001700009958091700690917106DC01ED91FC91DA
:100180000190F081E02D6B8109958091700690912E
:100190007106DC01ED91FC910190F081E02D6C8104
:1001A00009958091700690917106DC01ED91FC91AA
:1001B0000190F081E02D6D810995809170069091FC
:1001C0007106DC01ED91FC910190F081E02D6E81D2
:1001D00009950F8118850E5F1F4F809170069091D1
:1001E0007106E12EFF24DC01ED91FC910190F0817C
:1001F000E02D6E2D09958091700690917106DC01BD
:10020000ED91FC910190F081E02D602F09950E0D8C
:100210001F2D111D8E81080F111DD12C809170068C
:1002200090917106DC01ED91FC910190F081E02D3F
:10023000ED2CF12C2F813885E216F30660F4EC0EDC
:10024000FD1ED70119966C910995F7018185080F5C
:10025000111DD394E3CF612F099580917006909181
:100260007106DC01ED91FC910190F081E02D602F91
:10027000DF91CF911F910F91FF90EF90DF90099444
:10028000AF92BF92CF92DF92EF92FF920F931F93A4
:10029000CF93DF936C017B018B01040F151FEB01E2
:1002A0005E01AE18BF08C017D10759F06991D60199
:1002B000ED91FC910190F081E02DC6010995892B0B
:1002C00079F7C501DF91CF911F910F91FF90EF90CA
:1002D000DF90CF90BF90AF900895FC01538D448D77
:1002E000252F30E0842F90E0821B930B541710F0E1
:1002F000CF96089501970895FC01918D828D9817EE
:1003000061F0A28DAE0FBF2FB11D5D968C91928DC5
:100310009F5F9F73928F90E008958FEF9FEF0895F6
:10032000FC01918D828D981731F0828DE80FF11DBF
:10033000858D90E008958FEF9FEF08952FB7F89483
:100340008091550590915605A0915705B09158059B
:100350002FBF8093610590936205A0936305B093CE
:10036000640589E595E00E94900197FF26C02FB7AC
:10037000F8948091550590915605A0915705B0913C
:1003800058052FBF4091610550916205609163054A
:1003900070916405841B950BA60BB70B40915D050E
:1003A00050915E0560915F05709160058417950717
:1003B000A607B707B0F28FEF9FEF0895FC01918D6C
:1003C000228D892F90E0805C9F4F821B91098F7353
:1003D0009927089589E595E00E94DE0121E0892BA7
:1003E00009F420E0822F089580E090E0892B29F025
:1003F0000E94EA0181110C9400000895FC01A48D73
:10040000A80FB92FB11DA35ABF4F2C91848D90E036
:1004100001968F739927848FA689B7892C93A08919
:10042000B1898C91837080648C93938D848D9813A3
:1004300006C00288F389E02D80818F7D8083089536
:10044000EF92FF920F931F93CF93DF93EC0181E024
:10045000888F9B8D8C8D98131AC0E889F9898081CB
:1004600085FF15C09FB7F894EE89FF896083E889FE
:10047000F98980818370806480839FBF81E090E0F0
:10048000DF91CF911F910F91FF90EF900895F62E7D
:100490000B8D10E00F5F1F4F0F731127E02E8C8D17
:1004A0008E110CC00FB607FCFACFE889F98980815C
:1004B00085FFF5CFCE010E94FE01F1CFEB8DEC0F51
:1004C000FD2FF11DE35AFF4FF0829FB7F8940B8F79
:1004D000EA89FB8980818062CFCFCF93DF93EC01E3
:1004E000888D8823B9F0AA89BB89E889F9898C911C
:1004F00085FD03C0808186FD0DC00FB607FCF7CFD8
:100500008C9185FFF2CF808185FFEDCFCE010E94D7
:10051000FE01E9CFDF91CF9108953FB7F894809124
:100520004F0590915005A0915105B091520526B507
:10053000A89B05C02F3F19F00196A11DB11D3FBF1B
:10054000BA2FA92F982F8827BC01CD01620F711DEA
:10055000811D911D42E0660F771F881F991F4A95E4
:10056000D1F708958F929F92AF92BF92CF92DF9270
:10057000EF92FF926B017C010E948D024B015C01A6
:10058000C114D104E104F104B9F00E948D0268198C
:1005900079098A099B09683E73408105910580F3BA
:1005A00021E0C21AD108E108F10888EE880E83E044
:1005B000981EA11CB11CE4CFFF90EF90DF90CF906C
:1005C000BF90AF909F908F900895EF92FF920F93FE
:1005D0001F93CF93DF93EC01F12CE12C10E000E0AE
:1005E0008091700690917106DC01ED91FC91008480
:1005F000F185E02D0995892B99F461E070E080E0A8
:1006000090E00E94B202BFEFEB1AFB0A88EEE816F8
:1006100083E0F80628F38FEF37C002E010E0E0CF68
:100620008091700690917106DC01ED91FC9102843D
:10063000F385E02D09950930110508F03CC0F8015B
:10064000EC5DFC4F0C94CE0F2D033B034B034B038F
:100650004B034B035003520355038F3E09F0C0CFA9
:1006600018828983C8010196065F1F4F0034110567
:1006700050F48C01B5CF28813981282B3983288308
:1006800021303F4E51F28EEFDF91CF911F910F91AC
:10069000FF90EF900895FE01E00FF11F8083E2CFFD
:1006A0008E83E0CF1F828887DDCF2F813885282B6E
:1006B00038872F83D7CFFE01E00FF11F80832F8172
:1006C0003885C80108978217930761F680E0DCCF70
:1006D000CF92DF92EF92FF920F931F93CF93DF930E
:1006E0008C017B016A01EB01CE018E199F098C15EB
:1006F0009D0554F46991D801ED91FC910190F08130
:10070000E02DC8010995F0CFDF91CF911F910F9196
:10071000FF90EF90DF90CF9008952F923F924F92ED
:100720005F926F927F928F929F92AF92BF92CF9281
:10073000DF92EF92FF920F931F93CF93DF93CDB78A
:10074000DEB7A9970FB6F894DEBF0FBECDBF362F28
:10075000FC01E75AFF4F40815181628173814F5FF5
:100760005F4F6F4F7F4F4083518362837383DC0100
:10077000AC5BBF4F2C91E3E0E227E80FF92FF11DAE
:1007800034832F5F2C93203409F016C1FC01EB5BFE
:10079000FF4F40805180628073804D865E866F86F9
:1007A000788A34966080718082809380698A7A8AA0
:1007B0008B8A9C8A349680809180A280B3808D8AB7
:1007C0009E8AAF8AB88E3496A080B180C280D380D2
:1007D000A98EBA8ECB8EDC8E3496C080D180E2801A
:1007E000F380CD8EDE8EEF8EF8A2C986DA86EB8698
:1007F000FC862D853E854F8558892D833E834F830A
:100800005887C988DA88EB88FC88898C9A8CAB8CED
:10081000BC8C0D891E892F89388DBEE02B2E312C82
:1008200019A249A1443108F051C1B501A4014027E2
:100830005127622773274C215D216E217F212A01D8
:100840003B01482459246A247B24B301A201475662
:1008500056486D47754A4EA35FA368A779A7E9A1DB
:10086000EF70F0E03196EE0FFF1FEE0FFF1FE80F65
:10087000F91F4D805E806F8078845BE17694679489
:10088000579447945A95D1F74D815E816F81788551
:10089000A5E0440F551F661F771FAA95D1F744297D
:1008A0005529662977294080518062807380440DE4
:1008B000551D661D771D2A013B014EA15FA168A54C
:1008C00079A5440E551E661E771E49855A856B858F
:1008D0007C85440D551D661D771D49835A836B83A6
:1008E0007C8326013701B2E076946794579447944D
:1008F000BA95D1F7B701A601EEE1440F551F661F67
:10090000771FEA95D1F74429552966297729A9A1A6
:10091000AF5FA9A3A03509F068C0FC01EB5BFF4FF6
:100920004D845E846F847888C980DA80EB80FC8097
:100930004C0C5D1C6E1C7F1C408251826282738253
:100940003496C988DA88EB88FC884D805E806F8099
:100950007884C40CD51CE61CF71CC082D182E282CC
:10096000F3823496CD88DE88EF88F88C4C0D5D1DBF
:100970006E1D7F1D40835183628373833496498D3E
:100980005A8D6B8D7C8D400F511F621F731F4083EA
:1009900051836283738334962D8D3E8D4F8D58A184
:1009A000820E931EA41EB51E80829182A282B38203
:1009B0008C5B9F4FDC011C92A9960FB6F894DEBFAA
:1009C0000FBECDBFDF91CF911F910F91FF90EF90A0
:1009D000DF90CF90BF90AF909F908F907F906F905F
:1009E0005F904F903F902F900895E9A1EF70A4E0A1
:1009F000EA9FF00111242C014E0E5F1E5A86498693
:100A0000D2011496CD90DD90ED90FC901797B9A18E
:100A1000B03108F443C0F1013597EF70FF273196EC
:100A2000EE0FFF1FEE0FFF1FE80FF91FD101AF7090
:100A3000BB271196AA0FBB1FAA0FBB1FA80FB91F78
:100A40004D905D906D907C90C424D524E624F724CD
:100A50004080518062807380C424D524E624F7242A
:100A6000F1013B97EF70FF273196EE0FFF1FEE0F5E
:100A7000FF1FE80FF91F4080518062807380C424FB
:100A8000D524E624F724CC0CDD1CEE1CFF1CC11C75
:100A9000E985FA85C482D582E682F782FFEF2F1AB4
:100AA0003F0A89869A86AB86BC86CD80DE80EF8041
:100AB000F88449805A806B807C804D825E826F8290
:100AC0007886480159018A019B01ABCE59A1583261
:100AD00098F4B501A40140275127622773272A0102
:100AE0003B014C245D246E247F24B301A2014F55A9
:100AF000544166427149AFCE59A15C33D8F4B90173
:100B0000A8014C295D296E297F29482159216A2194
:100B10007B21280139014C205D206E207F20442A52
:100B2000552A662A772AB301A20144525344644EDF
:100B3000704791CEB501A401402751276227732742
:100B40002A013B014C245D246E247F24B301A201C1
:100B50004A525E436D4975437ECE089520914C05FF
:100B600030914D052817390771F490914B0580910C
:100B70004A05981741F0E0914B05F0E0E65FFA4F27
:100B8000808190E008958FEF9FEF08950895EF9290
:100B9000FF920F931F93CF93DF93DC015C96ED9050
:100BA000FC905D97E114F10479F481E090E01396F4
:100BB0009C938E93129790E080E0DF91CF911F91EC
:100BC0000F91FF90EF9008955196ED91FC915297FF
:100BD00050968C915097982F90950FB75E962C91C8
:100BE0005E97122F127021FD6095F89420811123D9
:100BF00019F1282B2083E7012197F1F728E0462FF0
:100C000050E0308160FF1AC0382B3083E701219714
:100C1000F1F7BA0175956795215089F7112381F095
:100C20008081892380830FBF5C968D919C91019771
:100C3000F1F781E090E0C1CF2923DCCF3923E5CF64
:100C40009081892BEFCF20914C0530914D052817CD
:100C5000390761F480914A0520914B0590E0805C52
:100C60009F4F821B91098F739927089590E080E030
:100C7000089520914C0530914D0528173907B9F496
:100C800090914B0580914A05981789F0E0914B05AA
:100C9000F0E0E65FFA4F808120914B0530E02F5F56
:100CA0003F4F2F73332720934B0590E008958FEF2C
:100CB0009FEF089590E080E00895CF92DF92EF9249
:100CC000FF92CF9389E595E00E94DE01892BD1F355
:100CD0000E949E01FC0197FD50C08D32910521F0CC
:100CE000C0970A9708F042C0C12CD12C7601C0E011
:100CF000E130F105D1F0ED32F105E9F1CF01C09716
:100D00000A9798F4AAE0B0E0A70196010E94920F1A
:100D10006F01FF0FEE08FF08C60ED71EE81EF91E72
:100D200080E3C81AD108E108F10889E595E00E943E
:100D30007C010E949E01FC01C0970A97C8F2E13035
:100D4000F105B1F2CC2341F0F094E094D094C0943A
:100D5000C11CD11CE11CF11CCC2009F4B3CF8C2D9B
:100D6000CF91FF90EF90DF90CF90089589E595E0C7
:100D70000E947C01ADCFC1E0D8CFC12CD12C76012F
:100D8000EBCFFC019B01BA0181E09FEE9183808350
:100D900081E08683308727838FEF828383838483F8
:100DA0008583A901CF0109960C94D40FCF93DF93CB
:100DB000CDB7DEB7CB54D1090FB6F894DEBF0FBE66
:100DC000CDBF92E02B969FAF2B972C968FAF2C9791
:100DD000AE01465B5F4F62E070E0CE0101960E947B
:100DE000C106CE0101960E948D00CE0101960E949F
:100DF000E50281110EC08F81873059F48A85C55B69
:100E0000DF4F0FB6F894DEBF0FBECDBFDF91CF919D
:100E1000089581E0F4CFCF93DF93CDB7DEB7CA5406
:100E2000D1090FB6F894DEBF0FBECDBF81E02B967F
:100E30008FAF2B97AE01465B5F4F61E070E0CE0154
:100E400001960E94C106CE0101960E948D00CE013E
:100E500001960E94E50281110EC08F81873059F4FE
:100E60008A85C65BDF4F0FB6F894DEBF0FBECDBFDD
:100E7000DF91CF91089581E0F4CFCF93DF93CDB789
:100E8000DEB7CA54D1090FB6F894DEBF0FBECDBF8E
:100E90008DE12B968FAF2B97AE01465B5F4F61E0E4
:100EA00070E0CE0101960E94C106CE0101960E941B
:100EB0008D00CE0101960E94E502811117C08F813D
:100EC0008730A1F48B859C85982789279827909354
:100ED0004306809342068A85C65BDF4F0FB6F894BF
:100EE000DEBF0FBECDBFDF91CF91089581E0F4CF7B
:100EF000FB0101900020E9F73197AF01461B570B2A
:100F0000DC01ED91FC910280F381E02D09948F9238
:100F10009F92AF92BF92EF92FF920F931F93CF9346
:100F2000DF93CDB7DEB7A1970FB6F894DEBF0FBE43
:100F3000CDBF7C01FA01CB0119A2223008F42AE0CE
:100F40008E010F5D1F4F822E912CB12CA12CBF0161
:100F5000A50194010E949D0FF901CA016A300CF5A8
:100F6000605DD8016E938D01232B242B252B79F7FF
:100F700090E080E0109721F0BD01C7010E94780742
:100F8000A1960FB6F894DEBF0FBECDBFDF91CF9113
:100F90001F910F91FF90EF90BF90AF909F908F9017
:100FA0000895695CDECF8F929F92AF92BF92CF92ED
:100FB000DF92EF92FF920F931F93CF93DF937C0109
:100FC000EB016C0182E0C80ED11C4701E5E08E0EFA
:100FD000911C10E000E0F60141916F0150E070E0DB
:100FE00060E02AE0CE010E9487075C01E881F98178
:100FF0000190F081E02D6EE2CE0109958A0D9B1DD6
:10100000080F191FC814D90431F7F701458150E0C2
:1010100070E060E02AE0CE010E948707800F911FF8
:10102000DF91CF911F910F91FF90EF90DF90CF90C4
:10103000BF90AF909F908F900895CF93DF93D0E0B3
:10104000C0E0009731F0BC0189E595E00E94780787
:10105000EC016AE271E089E595E00E9478078C0F67
:101060009D1FDF91CF910895BC0189E595E00C9417
:1010700078070F931F93CF93DF93CDB7DEB7CE548E
:10108000D1090FB6F894DEBF0FBECDBFE091690560
:10109000F0916A0502E00083E0916505F091660534
:1010A0001082E0916705F09168058FEC80831092C3
:1010B0007105E0916D05F0916E0516E01083E091E9
:1010C0006B05F0916C05808180618083E0916B05F8
:1010D000F0916C05808188608083E0916B05F091D0
:1010E0006C05808180688083E0916B05F0916C05D0
:1010F00080818F7D808368EE73E080E090E00E94C5
:10110000B202E0917406F0917506309731F1A08932
:10111000B1890C93A089B1891C92A485B5851C92D4
:10112000A685B78580E18C93108EA489B5891C9320
:10113000A289B3898C9180618C93A289B3898C91A7
:1011400088608C93A289B3898C9180688C93028883
:10115000F389E02D80818F7D8083E0917206F0918C
:101160007306309709F477C0138E128E118E108E8D
:10117000178A168A82E490E0958F848F8485863161
:1011800008F03DC02FE030E0378B268B20E430E0C4
:10119000318F208F27E230E0338F228F90916800CB
:1011A000883008F48EC021E08E3008F420E081E021
:1011B00001C0880F2A95EAF7892B809368009485EF
:1011C0002DE630E0983050F02BE630E09E3030F0E5
:1011D0002CE630E0963110F030E020E0348B238BA9
:1011E000292F30E0983008F06EC081E001C0880FF0
:1011F0009A95EAF7858B848D958D0197F1F7828D0D
:10120000938D892B41F140914C0550914D05E41788
:10121000F50709F14115510569F0DA0153962D9151
:101220003C91D9019C91DA0155968C918095892346
:10123000D9018C93868D8E7F868F10924A051092ED
:101240004B05F0934D05E0934C05A389B4898C912F
:101250009589892B8C9383E12B968FAF2B97809167
:1012600054069091550620915606309157062C96BB
:101270003FAF2C972D962FAF2D972E969FAF2E9781
:101280002F968FAF2F97AE01465B5F4F65E070E002
:10129000CE0101960E94C106CE0101960E948D00EA
:1012A000CE0101960E94E5028823D1F08DE291E003
:1012B0000E941D0861E070E080E090E00E94B202B0
:1012C000F9CF84E079CF9E3040F42850310981E095
:1012D00001C0880F2A95EAF78DCF2E503109F7CF3C
:1012E0008F81873019F78A858111E0CF80E591E001
:1012F0000E941D080E943D0780914206909143067E
:10130000892B21F58AE691E00E9434088FEC91E068
:101310000E941D0885EE91E00E941D088EEF91E06D
:101320000E941D0885E192E00E941D080E945D0652
:1013300080935405C25BDF4F0FB6F894DEBF0FBE3B
:10134000CDBFDF91CF911F910F91089587E991E073
:101350000E941D0883EB91E00E94340840914206F0
:101360005091430670E060E02AE089E595E00E9434
:10137000870784EC91E00E941D08C8CFCF93DF93CC
:10138000482F50E070E060E02AE089E595E00E9497
:101390008707EC016AE271E089E595E00E94780731
:1013A0008C0F9D1FDF91CF9108951F920F920FB662
:1013B0000F9211242F933F934F935F936F937F93DB
:1013C0008F939F93AF93BF93EF93FF9389E595E03E
:1013D0000E94FE01FF91EF91BF91AF919F918F917C
:1013E0007F916F915F914F913F912F910F900FBE21
:1013F0000F901F9018951F920F920FB60F92112405
:101400002F938F939F93EF93FF93E0916905F09152
:101410006A058081E0916F05F091700582FD1BC027
:101420009081809172058F5F8F7320917305821771
:1014300041F0E0917205F0E0E75AFA4F958F809302
:101440007205FF91EF919F918F912F910F900FBE99
:101450000F901F9018958081F4CF1F920F920FB6B6
:101460000F9211242F933F938F939F93AF93BF932A
:101470008091550590915605A0915705B09158055A
:1014800030914E0523E0230F2D3758F50196A11D0D
:10149000B11D20934E058093550590935605A0935A
:1014A0005705B093580580914F0590915005A09134
:1014B0005105B09152050196A11DB11D80934F05B4
:1014C00090935005A0935105B0935205BF91AF91F1
:1014D0009F918F913F912F910F900FBE0F901F9072
:1014E000189526E8230F0296A11DB11DD2CF1F9299
:1014F0000F920FB60F9211242F933F934F935F9348
:101500006F937F938F939F93AF93BF93EF93FF93CB
:10151000E0914C05F0914D05309749F0A685B785CF
:101520008585968D91FF14C09C918923A1F4FF912C
:10153000EF91BF91AF919F918F917F916F915F914B
:101540004F913F912F910F900FBE0F901F901895C4
:101550009C91892361F7A389B4899C9185898095A1
:1015600089238C93868997890197F1F7608D718D16
:10157000A685B785558538E020E0CB010197F1F7C6
:10158000822F90E095958795282F4C91452309F05F
:101590002068315091F7868D81FD209580914A0514
:1015A00090E001968F73992730914B05381799F089
:1015B000A0914A05B0E0A65FBA4F2C9380934A05EC
:1015C000828D938D0197F1F7A389B4898C919589C8
:1015D000892B8C93ACCF868D8160868FF1CF90E084
:1015E000FC01E859FF4F2491FC01E255FF4F349173
:1015F000FC01E656FF4FE491EE23C9F0222339F0B7
:10160000233001F1A8F4213019F1223029F1F0E062
:10161000EE0FFF1FE057FF4FA591B4918FB7F894DD
:10162000EC91611126C030953E233C938FBF089505
:101630002730A9F02830C9F0243049F78091800084
:101640008F7D03C0809180008F7780938000DFCFF3
:1016500084B58F7784BDDBCF84B58F7DFBCF809140
:10166000B0008F778093B000D2CF8091B0008F7D93
:10167000F9CF3E2BDACF0F931F93CF93DF931092C6
:101680005C0510925B0548EE53E060E070E040932B
:101690005D0550935E0560935F057093600584E07F
:1016A00091E090935A058093590585EC90E09093D2
:1016B00066058093650584EC90E0909368058093BF
:1016C000670580EC90E090936A058093690581EC52
:1016D00090E090936C0580936B0582EC90E0909382
:1016E0006E0580936D0586EC90E090937005809375
:1016F0006F05109272051092730510927405109286
:10170000750588E291E09093F7058093F6051092B5
:10171000F8051092F9051092FA051092FB059093C6
:10172000FD058093FC051092FE051092FF051092B6
:101730000006109201069093030680930206109211
:101740000406109205061092060610920706909362
:1017500009068093080610920A0610920B06109252
:101760000C0610920D0690930F0680930E061092B1
:101770001006109211061092120610921306909302
:1017800015068093140610921606109217061092F2
:1017900018061092190690931B0680931A06109251
:1017A0001C0610921D0610921E0610921F069093A2
:1017B0002106809320061092220610922306109292
:1017C00024061092250690932D0680932C061092E5
:1017D0002E0610922F06109230061092310690932A
:1017E000270680932606109228061092290610924A
:1017F0002A0610922B06909333068093320610929D
:1018000034061092350610923606109237069093E1
:1018100039068093380610923A0610923B061092D1
:101820003C0610923D069093960680939506109282
:101830009706109298061092990610929A061092A6
:1018400079061092780640937A0650937B0660934F
:101850007C0670937D0686E191E0909377068093F5
:10186000760610928D0610928C0610928F061092BA
:101870008E06109291061092900610929306109286
:101880009206609194066E7F6D7F609394066695D4
:10189000617081E0682783E00E94EF0A41EB50E02D
:1018A000FA0164918DE990E0FC012491222399F0E2
:1018B00030E0220F331FF901EA57FF4FA591B49191
:1018C000F901E057FF4F259134912FB7F8943C91DF
:1018D000632B6C932FBFFA01449140938606FC0161
:1018E0008491E82FF0E0EE0FFF1FE057FF4F859146
:1018F0009491909388068093870600EB10E0F8019E
:101900002491CCE9D0E0FE0184918823C9F090E0D5
:10191000880F991FFC01EA57FF4FA591B491FC0174
:10192000E057FF4F459154913FB7F8949C91822F17
:10193000809598239C93FA019081892380833FBFEF
:101940008091940681FD04C061E082E00E94EF0A6C
:1019500086E796E022E020938206F8010491009346
:101960008306FE01C491EC2FF0E0EE0FFF1FE45858
:10197000FF4F259134913093850620938406109271
:10198000450610924406109247061092460620E43F
:1019900030E0309349062093480610924B0610928F
:1019A0004A064FEF5FEFBA0140934C0650934D0645
:1019B00060934E0670934F06309351062093500665
:1019C00020E031EE309353062093520610925406D5
:1019D00010925506109256061092570640935806DC
:1019E0005093590660935A0670935B0610927506E1
:1019F000109274069093730680937206909371060A
:101A000080937006DF91CF911F910F910895CF932E
:101A1000DF93CDB7DEB7CF54D1090FB6F894DEBF50
:101A20000FBECDBF789484B5826084BD84B58160DB
:101A300084BD85B5826085BD85B5816085BD809199
:101A40006E00816080936E00109281008091810011
:101A50008260809381008091810081608093810009
:101A6000809180008160809380008091B1008460CB
:101A70008093B1008091B00081608093B00080912C
:101A80007A00846080937A0080917A0082608093EB
:101A90007A0080917A00816080937A0080917A0048
:101AA000806880937A001092C1000E94390895E006
:101AB000D92E26E0C22E34E0B32E4DE0A42E80E0D5
:101AC000E82E80E0F82E809154058130C1F080F03E
:101AD000823009F446C1833009F4E8C1E114F1040D
:101AE00091F30E94EA01882371F30E940000E7CF7E
:101AF00060E070E0CB010E94B2020E94390885E3E9
:101B000092E00E941D0881E592E00E941D0880E796
:101B100092E00E941D080E945D068093530581118A
:101B20000FC08BEB92E00E941D088DEC92E00E94AA
:101B30001D0868EE73E080E090E00E94B202CECF14
:101B400080EE92E00E943408809153050E94BE0905
:101B50008FEE92E00E943408809153050E94BE09E6
:101B60000E940B078130F9F038F08230B9F08330F1
:101B7000E9F085E493E014C087E193E00E941D083A
:101B800081E00E94D606863009F44DC008F077C186
:101B9000882379F0813009F4CDC0F2C081EB91E067
:101BA0000E941D08DDCF83E293E0FACF87E393E044
:101BB000F7CF83E593E00E941D0883E693E00E943F
:101BC0001D0860ED77E080E090E00E94B2020E9484
:101BD0000B07182F682F89E595E00E94200212302C
:101BE000B1F785EA93E00E943408809153050E9482
:101BF000BE0989EA93E00E941D080E940B07182F76
:101C0000682F89E595E00E942002113009F48AC00E
:101C100068F0123009F481C087E393E0133059F380
:101C200085E493E0E8CF81E793E081CF87E193E01B
:101C30000E941D0882E00E94D6068630A1F308F0BB
:101C40001EC18111A7CF83E593E00E941D0881EC9E
:101C500093E00E943408809153050E94BE092B96A0
:101C6000DFAE2B97AE01465B5F4F61E070E0CE01C7
:101C700001960E94C106CE0101960E948D00CE0100
:101C800001960E94E502811150C08F81873009F0D2
:101C90004CC08A8590E0009709F049C086ED93E03A
:101CA0000E941D0885EA93E00E9434088091530544
:101CB0000E94BE09809153052B96CFAE2B9791E0E1
:101CC0002C969FAF2C972D961FAE2D972E968FAFEB
:101CD0002E97AE01465B5F4F64E070E0CE01019647
:101CE0000E94C106CE0101960E948D00CE01019690
:101CF0000E94E502811104C08F816A85873009F056
:101D000061E0062F10E089E595E00E9420020115B0
:101D10001105C1F481E094E00ACF81EB91E00E94CB
:101D200034086BCF83E293E066CF81E0B3CF81309C
:101D3000910519F483E293E0FACE0A9709F586EE4D
:101D400093E0F5CE01301105A9F389E094E00B3062
:101D5000110509F4ECCE0831110591F48AE294E002
:101D6000E6CE81E494E00E941D080E940B078130BA
:101D700009F348F0823009F493C0833009F493C02A
:101D800085E493E0D4CE87E193E00E941D0881E0D2
:101D90000E94D606863009F446CF08F070C0811143
:101DA000F9CE83E593E00E941D082E961FAE1EAE6D
:101DB0002E972B96BFAE2B9781E02C968FAF2C974A
:101DC00080914806909149062F969FAF2F97609675
:101DD0008FAF6097AE01465B5F4F66E070E0CE016B
:101DE00001960E94C106CE0101960E948D00CE018F
:101DF00001960E94E50281119DCF8F81873009F005
:101E000099CF8B859C8598278927982790933F06A3
:101E100080933E068D859E859827892798279093E5
:101E20004106809340068A85811131C08FE594E098
:101E30000E941D0884E794E00E94340840913E0609
:101E400050913F0670E060E02AE089E595E00E944D
:101E500087078FE794E00E94340840914006509134
:101E6000410670E060E02AE089E595E00E9487077E
:101E70006AE271E089E595E00E9478075ACE8730E2
:101E800019F0853109F07CCF81E893E050CE8130A4
:101E900009F450CF893009F073CF84E994E047CE3C
:101EA00089EA94E044CE87E393E041CE8CEB94E062
:101EB0000E941D080E943D0790E08E519B4F0E949A
:101EC0001D082B96AFAE2B97AE01465B5F4F61E0CE
:101ED00070E0CE0101960E94C106CE0101960E94DB
:101EE0008D00CE0101960E94E50223CE86E191E0AD
:101EF000909377068093760680914C0590914D05DE
:101F00008657964071F4E0918906F0918A06908197
:101F100080918B0680958923808310924D051092C5
:101F20004C0508950E94BF0FA59F900DB49F900D82
:101F3000A49F800D911D11240895A1E21A2EAA1BC1
:101F4000BB1BFD010DC0AA1FBB1FEE1FFF1FA21769
:101F5000B307E407F50720F0A21BB30BE40BF50B66
:101F6000661F771F881F991F1A9469F760957095EF
:101F7000809590959B01AC01BD01CF010895A29F72
:101F8000B001B39FC001A39F700D811D1124911D4D
:101F9000B29F700D811D1124911D0895EE0FFF1F3A
:101FA0000590F491E02D0994FB01DC0102C0019041
:101FB0000D9241505040D8F7089510E0C2E6D0E0AD
:101FC00004C0FE010E94CE0F2196C336D107C9F787
:041FD000F894FFCFB3
:101FD40000000000200240016D016D02DE017C0161
:101FE400900100000000C70540015A06C6052306FB
:101FF4003906AE0500000000D3070D0A00446964E9
:10200400206E6F742066696E642066696E676572FF
:102014007072696E742073656E736F72203A280053
:10202400466F756E642066696E6765727072696E5C
:10203400742073656E736F72210053656E736F72D3
:1020440020646F65736E277420636F6E7461696EAC
:1020540020616E792066696E6765727072696E744C
:1020640020646174612E0057616974696E6720662B
:102074006F722076616C69642066696E6765722E82
:102084002E2E0053656E736F7220636F6E746169D8
:102094006E7320002074656D706C617465730050FC
:1020A4006C656173652C2063686F6F7365206120B4
:1020B4007461736B005B315D20456E726F6C6C20D4
:1020C400612066696E6765727072696E74005B3256
:1020D4005D205665726966792066696E67657270FF
:1020E40072696E74005B335D2052656D6F76652096
:1020F400616C6C2066696E6765727072696E7420BB
:1021040064617461004C6F6164696E67206461741A
:102114006120666F7220456E726F6C6C6D656E74B3
:1021240000526561647920746F20656E726F6C6C07
:1021340020612066696E6765727072696E74210031
:10214400506C65617365207479706520696E2074C4
:1021540068652049442023202866726F6D20312051
:10216400746F203132372920796F752077616E744E
:1021740020746F20736176652074686973206669C2
:102184006E6765722061732E2E2E00494420233021
:1021940020697320696E76616C69642100506C65F6
:1021A4006173652C2074727920616761696E210006
:1021B400456E726F6C6C696E67204944202300572A
:1021C400616974696E6720666F722076616C6964F8
:1021D4002066696E67657220746F20656E726F6C1D
:1021E4006C206173202300496D6167652074616B05
:1021F400656E00436F6D6D756E69636174696F6EB2
:10220400206572726F7200496D6167696E6720653F
:1022140072726F7200556E6B6E6F776E206572729C
:102224006F7200496D61676520636F6E76657274C5
:1022340065640052656D6F76652066696E676572C8
:1022440000496D61676520746F6F206D65737379E4
:1022540000436F756C64206E6F742066696E642031
:1022640066696E6765727072696E74206665617402
:10227400757265730049442000506C616365207376
:10228400616D652066696E67657220616761696E5C
:10229400004372656174696E67206D6F64656C20BC
:1022A400666F722023005072696E7473206D6174BE
:1022B40063686564210046696E6765727072696E51
:1022C400747320646964206E6F74206D6174636834
:1022D4000053746F7265642100436F756C64206EE3
:1022E4006F742073746F726520696E2074686174F2
:1022F400206C6F636174696F6E004572726F722037
:1023040077726974696E6720746F20666C61736894
:10231400004C6F6164696E67206461746120666F4C
:102324007220566572696669636174696F6E0046EE
:102334006F756E642061207072696E74206D6174B3
:1023440063682100466F756E642049442023002091
:102354007769746820636F6E666964656E6365206F
:102364006F662000446964206E6F742066696E6431
:102374002061206D61746368004E6F2066696E672A
:102384006572206465746563746564000A0A446553
:102394006C6574696E6720616C6C2066696E676534
:1023A400727072696E742074656D706C617465739B
:1023B40021004E756D626572206F662066696E67D6
:1023C40065727072696E74206461746120746F2028
:0A23D40064656C6574653A20000032
:00000001FF
