:020000040000FA
:100000000C9463000C948B000C948B000C94AD0743
:100010000C94AD070C94AD070C948B000C948B00E2
:100020000C948B000C948B000C948B000C948B0024
:100030000C948B000C948B000C948B000C948B0014
:100040000C9463070C948B000C9431070C940B07F1
:100050000C948B000C948B000C948B000C948B00F4
:100060000C948B000C948B0000000008000201002F
:100070000003040700000000000000000000000072
:1000800023002600290000000000240027002A0089
:1000900000000000250028002B00040404040404D0
:1000A0000404020202020202030303030303010227
:1000B00004081020408001020408102001020408F6
:1000C00010207108D10B11241FBECFEFD8E0DEBF86
:1000D000CDBF25E0A8EBB4E001C01D92AB3FB20755
:1000E000E1F714E0A0E0B1E0EAE8F8E102C0059031
:1000F0000D92A83BB107D9F710E0C2E6D0E004C0EA
:100100002197FE010E94290CC136D107C9F70E9430
:100110009F090C94380C0C940000DF92EF92FF9230
:100120000F931F93CF93DF93EC018091D6059091AD
:10013000D7056981DC01ED91FC910190F081E02D02
:1001400009958091D6059091D705DC01ED91FC9140
:100150000190F081E02D688109958091D6059091FC
:10016000D705DC01ED91FC910190F081E02D6A81D1
:1001700009958091D6059091D705DC01ED91FC9110
:100180000190F081E02D6B8109958091D6059091C9
:10019000D705DC01ED91FC910190F081E02D6C819F
:1001A00009958091D6059091D705DC01ED91FC91E0
:1001B0000190F081E02D6D8109958091D605909197
:1001C000D705DC01ED91FC910190F081E02D6E816D
:1001D00009950F8118850E5F1F4F8091D60590916C
:1001E000D705E12EFF24DC01ED91FC910190F08117
:1001F000E02D6E2D09958091D6059091D705DC01F3
:10020000ED91FC910190F081E02D602F09950E0D8C
:100210001F2D111D8E81080F111DD12C8091D60527
:100220009091D705DC01ED91FC910190F081E02DDA
:10023000ED2CF12C2F813885E216F30660F4EC0EDC
:10024000FD1ED70119966C910995F7018185080F5C
:10025000111DD394E3CF612F09958091D60590911C
:10026000D705DC01ED91FC910190F081E02D602F2C
:10027000DF91CF911F910F91FF90EF90DF90099444
:10028000AF92BF92CF92DF92EF92FF920F931F93A4
:10029000CF93DF936C017B018B01040F151FEB01E2
:1002A0005E01AE18BF08C017D10759F06991D60199
:1002B000ED91FC910190F081E02DC6010995892B0B
:1002C00079F7C501DF91CF911F910F91FF90EF90CA
:1002D000DF90CF90BF90AF900895FC01538D448D77
:1002E000252F30E0842F90E0821B930B541710F0E1
:1002F000CF96089501970895FC01918D828D9817EE
:1003000061F0A28DAE0FBF2FB11D5D968C91928DC5
:100310009F5F9F73928F90E008958FEF9FEF0895F6
:10032000FC01918D828D981731F0828DE80FF11DBF
:10033000858D90E008958FEF9FEF08952FB7F89483
:100340008091030590910405A0910505B0910605E3
:100350002FBF80930F0590931005A0931105B093C4
:10036000120587E095E00E94900197FF26C02FB705
:10037000F8948091030590910405A0910505B09132
:1003800006052FBF40910F05509110056091110592
:1003900070911205841B950BA60BB70B40910B05B2
:1003A00050910C0560910D0570910E05841795070D
:1003B000A607B707B0F28FEF9FEF0895FC01918D6C
:1003C000228D892F90E0805C9F4F821B91098F7353
:1003D0009927089587E095E00E94DE0121E0892BAE
:1003E00009F420E0822F089580E090E0892B29F025
:1003F0000E94EA0181110C9400000895FC01A48D73
:10040000A80FB92FB11DA35ABF4F2C91848D90E036
:1004100001968F739927848FA689B7892C93A08919
:10042000B1898C91837080648C93938D848D9813A3
:1004300006C00288F389E02D80818F7D8083089536
:10044000EF92FF920F931F93CF93DF93EC0181E024
:10045000888F9B8D8C8D98131AC0E889F9898081CB
:1004600085FF15C09FB7F894EE89FF896083E889FE
:10047000F98980818370806480839FBF81E090E0F0
:10048000DF91CF911F910F91FF90EF900895F62E7D
:100490000B8D10E00F5F1F4F0F731127E02E8C8D17
:1004A0008E110CC00FB607FCFACFE889F98980815C
:1004B00085FFF5CFCE010E94FE01F1CFEB8DEC0F51
:1004C000FD2FF11DE35AFF4FF0829FB7F8940B8F79
:1004D000EA89FB8980818062CFCFCF93DF93EC01E3
:1004E000888D8823B9F0AA89BB89E889F9898C911C
:1004F00085FD03C0808186FD0DC00FB607FCF7CFD8
:100500008C9185FFF2CF808185FFEDCFCE010E94D7
:10051000FE01E9CFDF91CF9108953FB7F894809124
:10052000FD049091FE04A091FF04B091000526B552
:10053000A89B05C02F3F19F00196A11DB11D3FBF1B
:10054000BA2FA92F982F8827BC01CD01620F711DEA
:10055000811D911D42E0660F771F881F991F4A95E4
:10056000D1F708958F929F92AF92BF92CF92DF9270
:10057000EF92FF926B017C010E948D024B015C01A6
:10058000C114D104E104F104B9F00E948D0268198C
:1005900079098A099B09683E73408105910580F3BA
:1005A00021E0C21AD108E108F10888EE880E83E044
:1005B000981EA11CB11CE4CFFF90EF90DF90CF906C
:1005C000BF90AF909F908F900895EF92FF920F93FE
:1005D0001F93CF93DF93EC01F12CE12C10E000E0AE
:1005E0008091D6059091D705DC01ED91FC910084B6
:1005F000F185E02D0995892B99F461E070E080E0A8
:1006000090E00E94B202BFEFEB1AFB0A88EEE816F8
:1006100083E0F80628F38FEF37C002E010E0E0CF68
:100620008091D6059091D705DC01ED91FC91028473
:10063000F385E02D09950930110508F03CC0F8015B
:10064000EC5DFC4F0C94290C2D033B034B034B0337
:100650004B034B035003520355038F3E09F0C0CFA9
:1006600018828983C8010196065F1F4F0034110567
:1006700050F48C01B5CF28813981282B3983288308
:1006800021303F4E51F28EEFDF91CF911F910F91AC
:10069000FF90EF900895FE01E00FF11F8083E2CFFD
:1006A0008E83E0CF1F828887DDCF2F813885282B6E
:1006B00038872F83D7CFFE01E00FF11F80832F8172
:1006C0003885C80108978217930761F680E0DCCF70
:1006D0002091FA043091FB042817390771F49091A6
:1006E000F9048091F804981741F0E091F904F0E0E2
:1006F000E854FB4F808190E008958FEF9FEF0895BD
:100700000895EF92FF920F931F93CF93DF93DC0135
:100710005C96ED90FC905D97E114F10479F481E032
:1007200090E013969C938E93129790E080E0DF9177
:10073000CF911F910F91FF90EF9008955196ED91F9
:10074000FC91529750968C915097982F90950FB797
:100750005E962C915E97122F127021FD6095F89491
:100760002081112319F1282B2083E7012197F1F72C
:1007700028E0462F50E0308160FF1AC0382B3083CC
:10078000E7012197F1F7BA0175956795215089F72F
:10079000112381F08081892380830FBF5C968D9126
:1007A0009C910197F1F781E090E0C1CF2923DCCF44
:1007B0003923E5CF9081892BEFCF2091FA04309136
:1007C000FB042817390761F48091F8042091F9049B
:1007D00090E0805C9F4F821B91098F739927089549
:1007E00090E080E008952091FA043091FB042817EE
:1007F0003907B9F49091F9048091F804981789F0B9
:10080000E091F904F0E0E854FB4F80812091F90475
:1008100030E02F5F3F4F2F7333272093F90490E090
:1008200008958FEF9FEF089590E080E00895CF92B4
:10083000DF92EF92FF92CF9387E095E00E94DE0176
:10084000892BD1F30E949E01FC0197FD50C08D328F
:10085000910521F0C0970A9708F042C0C12CD12C15
:100860007601C0E0E130F105D1F0ED32F105E9F1BA
:10087000CF01C0970A9798F4AAE0B0E0A7019601CB
:100880000E94ED0B6F01FF0FEE08FF08C60ED71E8A
:10089000E81EF91E80E3C81AD108E108F10887E0D4
:1008A00095E00E947C010E949E01FC01C0970A977E
:1008B000C8F2E130F105B1F2CC2341F0F094E094BC
:1008C000D094C094C11CD11CE11CF11CCC2009F4B3
:1008D000B3CF8C2DCF91FF90EF90DF90CF90089504
:1008E00087E095E00E947C01ADCFC1E0D8CFC12C5C
:1008F000D12C7601EBCFFC0101900020E9F7319774
:10090000AF01481B590BBC0187E095E00C944001F6
:100910008F929F92AF92BF920F931F93CF93DF93CB
:10092000CDB7DEB7A1970FB6F894DEBF0FBECDBF2F
:1009300019A2423008F44AE08E010F5D1F4F842E49
:10094000912CB12CA12CA50194010E94070CE62F3B
:10095000B901CA01EA30F4F4E05DD801EE938D01EB
:10096000232B242B252B79F790E080E0109719F0AA
:10097000CD010E947B04A1960FB6F894DEBF0FBE96
:10098000CDBFDF91CF911F910F91BF90AF909F90FE
:100990008F900895E95CE1CFCF93DF93682F70E0EB
:1009A00090E080E04AE00E948804EC0184E291E05B
:1009B0000E947B048C0F9D1FDF91CF910895CF93F0
:1009C000DF930E947B04EC0184E291E00E947B04AF
:1009D0008C0F9D1FDF91CF9108950C947B04FC0137
:1009E0009B01BA0181E09FEE9183808381E0868341
:1009F000308727838FEF8283838384838583A90154
:100A0000CF0109960C942F0CCF93DF93CDB7DEB7AF
:100A1000CB54D1090FB6F894DEBF0FBECDBF92E024
:100A20002B969FAF2B972C968FAF2C97AE01465BE2
:100A30005F4F62E070E0CE0101960E94EF04CE01AC
:100A400001960E948D00CE0101960E94E50281115F
:100A50000EC08F81873059F48A85C55BDF4F0FB692
:100A6000F894DEBF0FBECDBFDF91CF91089581E036
:100A7000F4CFCF93DF93CDB7DEB7CA54D1090FB609
:100A8000F894DEBF0FBECDBF81E02B968FAF2B97C2
:100A9000AE01465B5F4F61E070E0CE0101960E94BF
:100AA000EF04CE0101960E948D00CE0101960E94B6
:100AB000E50281110EC08F81873059F48A85C65BAB
:100AC000DF4F0FB6F894DEBF0FBECDBFDF91CF91E1
:100AD000089581E0F4CF0F931F93CF93DF93CDB7A9
:100AE000DEB7CE54D1090FB6F894DEBF0FBECDBF2E
:100AF000E0911705F091180502E00083E0911305DD
:100B0000F09114051082E0911505F09116058FEC17
:100B1000808310921F05E0911B05F0911C0516E0E3
:100B20001083E0911905F0911A058081806180831E
:100B3000E0911905F0911A05808188608083E09129
:100B40001905F0911A05808180688083E09119056C
:100B5000F0911A0580818F7D808368EE73E080E0DC
:100B600090E00E94B202E091DA05F091DB05309747
:100B700031F1A089B1890C93A089B1891C92A48517
:100B8000B5851C92A685B78580E18C93108EA489CB
:100B9000B5891C93A289B3898C9180618C93A289B9
:100BA000B3898C9188608C93A289B3898C91806879
:100BB0008C930288F389E02D80818F7D8083E09182
:100BC000D805F091D905309709F477C0138E128EAD
:100BD000118E108E178A168A82E490E0958F848F8A
:100BE0008485863108F03DC02FE030E0378B268BBE
:100BF00020E430E0318F208F27E230E0338F228FE6
:100C000090916800883008F48EC021E08E3008F49E
:100C100020E081E001C0880F2A95EAF7892B8093B4
:100C2000680094852DE630E0983050F02BE630E0F7
:100C30009E3030F02CE630E0963110F030E020E0CD
:100C4000348B238B292F30E0983008F06EC081E080
:100C500001C0880F9A95EAF7858B848D958D019751
:100C6000F1F7828D938D892B41F14091FA045091D7
:100C7000FB04E417F50709F14115510569F0DA01A4
:100C800053962D913C91D9019C91DA0155968C9106
:100C900080958923D9018C93868D8E7F868F1092C3
:100CA000F8041092F904F093FB04E093FA04A3898A
:100CB000B4898C919589892B8C9383E12B968FAF86
:100CC0002B978091BA059091BB052091BC0530917E
:100CD000BD052C963FAF2C972D962FAF2D972E96B6
:100CE0009FAF2E972F968FAF2F97AE01465B5F4F2A
:100CF00065E070E0CE0101960E94EF04CE010196FE
:100D00000E948D00CE0101960E94E5028823D1F059
:100D100087E291E00E94DF0461E070E080E090E013
:100D20000E94B202F9CF84E079CF9E3040F428507F
:100D3000310981E001C0880F2A95EAF78DCF2E5046
:100D40003109F7CF8F81873019F78A858111E0CF7C
:100D50008AE491E00E94DF048DE12B968FAF2B9700
:100D6000AE01465B5F4F61E070E0CE0101960E94EC
:100D7000EF04CE0101960E948D00CE0101960E94E3
:100D8000E50281110CC08F81873049F48B859C85E9
:100D90009827892798279093A9058093A805809183
:100DA000A8059091A905892B01F584E691E00E94A0
:100DB000ED048AEE91E00E94DF0480E092E00E9460
:100DC000DF0489E192E00E94DF040E94170480930F
:100DD0000205C25BDF4F0FB6F894DEBF0FBECDBF7A
:100DE000DF91CF911F910F91089582EB91E00E94C6
:100DF000DF048EEC91E00E94ED046091A8057091F3
:100E0000A90590E080E04AE00E9488048FED91E01F
:100E10000E94DF04CECF1F920F920FB60F921124C3
:100E20002F933F934F935F936F937F938F939F93F2
:100E3000AF93BF93EF93FF9387E095E00E94FE018D
:100E4000FF91EF91BF91AF919F918F917F916F91A2
:100E50005F914F913F912F910F900FBE0F901F9078
:100E600018951F920F920FB60F9211242F938F9304
:100E70009F93EF93FF93E0911705F0911805808100
:100E8000E0911D05F0911E0582FD1BC090818091AF
:100E900020058F5F8F7320912105821741F0E0912B
:100EA0002005F0E0E95FFA4F958F80932005FF91D0
:100EB000EF919F918F912F910F900FBE0F901F90E8
:100EC00018958081F4CF1F920F920FB60F921124C4
:100ED0002F933F938F939F93AF93BF93809103057D
:100EE00090910405A0910505B09106053091FC0490
:100EF00023E0230F2D3758F50196A11DB11D209336
:100F0000FC048093030590930405A0930505B0931A
:100F100006058091FD049091FE04A091FF04B0911C
:100F200000050196A11DB11D8093FD049093FE0460
:100F3000A093FF04B0930005BF91AF919F918F9153
:100F40003F912F910F900FBE0F901F90189526E89C
:100F5000230F0296A11DB11DD2CF1F920F920FB683
:100F60000F9211242F933F934F935F936F937F932F
:100F70008F939F93AF93BF93EF93FF93E091FA0406
:100F8000F091FB04309749F0A685B7858585968D4D
:100F900091FF14C09C918923A1F4FF91EF91BF911F
:100FA000AF919F918F917F916F915F914F913F9101
:100FB0002F910F900FBE0F901F9018959C91892331
:100FC00061F7A389B4899C918589809589238C9345
:100FD000868997890197F1F7608D718DA685B78510
:100FE000558538E020E0CB010197F1F7822F90E0A2
:100FF00095958795282F4C91452309F0206831500D
:1010000091F7868D81FD20958091F80490E00196FE
:101010008F7399273091F904381799F0A091F8044B
:10102000B0E0A854BB4F2C938093F804828D938D2D
:101030000197F1F7A389B4898C919589892B8C93B9
:10104000ACCF868D8160868FF1CF90E0FC01E859AE
:10105000FF4F2491FC01E255FF4F3491FC01E6560D
:10106000FF4FE491EE23C9F0222339F0233001F140
:10107000A8F4213019F1223029F1F0E0EE0FFF1F22
:10108000E057FF4FA591B4918FB7F894EC9161119F
:1010900026C030953E233C938FBF08952730A9F09A
:1010A0002830C9F0243049F7809180008F7D03C03B
:1010B000809180008F7780938000DFCF84B58F7719
:1010C00084BDDBCF84B58F7DFBCF8091B0008F775F
:1010D0008093B000D2CF8091B0008F7DF9CF3E2BAE
:1010E000DACF0F931F93CF93DF9310920A051092DC
:1010F000090588EE93E0A0E0B0E080930B059093A3
:101100000C05A0930D05B0930E0524E031E030935B
:1011100008052093070525EC30E030931405209353
:10112000130524EC30E0309316052093150520ECD0
:1011300030E0309318052093170521EC30E0309310
:101140001A052093190522EC30E030931C052093FA
:101150001B0526EC30E030931E0520931D051092F0
:10116000200510922105109222051092230510925D
:10117000DF051092DE058093E0059093E105A093D2
:10118000E205B093E30586E191E09093DD0580935D
:10119000DC051092F3051092F2051092F5051092FD
:1011A000F4051092F7051092F6051092F9051092C9
:1011B000F8056091FA056E7F6D7F6093FA0566957C
:1011C000617081E0682783E00E94250841EB50E0D0
:1011D000FA0164918DE990E0FC012491222399F0B9
:1011E00030E0220F331FF901EA57FF4FA591B49168
:1011F000F901E057FF4F259134912FB7F8943C91B6
:10120000632B6C932FBFFA0144914093EC05FC01D2
:101210008491E82FF0E0EE0FFF1FE057FF4F85911C
:1012200094919093EE058093ED0500EB10E0F801AA
:101230002491CCE9D0E0FE0184918823C9F090E0AC
:10124000880F991FFC01EA57FF4FA591B491FC014B
:10125000E057FF4F459154913FB7F8949C91822FEE
:10126000809598239C93FA019081892380833FBFC6
:101270008091FA0581FD04C061E082E00E942508AA
:101280008CED95E022E02093E805F80104910093AD
:10129000E905FE01C491EC2FF0E0EE0FFF1FE458CA
:1012A000FF4F259134913093EB052093EA0510927E
:1012B000AB051092AA051092AD051092AC0520E482
:1012C00030E03093AF052093AE051092B105109237
:1012D000B0054FEF5FEFBA014093B2055093B305ED
:1012E0006093B4057093B5053093B7052093B605A8
:1012F00020E031EE3093B9052093B8051092BA057D
:101300001092BB051092BC051092BD054093BE051E
:101310005093BF056093C0057093C1051092DB0523
:101320001092DA059093D9058093D8059093D7054C
:101330008093D605DF91CF911F910F910895CF93A0
:10134000DF93CDB7DEB7CF54D1090FB6F894DEBF27
:101350000FBECDBF789484B5826084BD84B58160B2
:1013600084BD85B5826085BD85B5816085BD809170
:101370006E00816080936E001092810080918100E8
:1013800082608093810080918100816080938100E0
:10139000809180008160809380008091B1008460A2
:1013A0008093B1008091B00081608093B000809103
:1013B0007A00846080937A0080917A0082608093C2
:1013C0007A0080917A00816080937A0080917A001F
:1013D000806880937A001092C1000E946B0585E0BE
:1013E000F82E96E0E92E24E0D22E00E010E0809165
:1013F00002058130A9F068F0823009F433C101158B
:101400001105A9F30E94EA01882389F30E940000D4
:10141000EECF60E070E0CB010E94B2020E946B054B
:1014200080E392E00E94DF048CE492E00E94DF04FB
:101430008BE692E00E94DF040E941704809301056E
:1014400081110FC086EB92E00E94DF0488EC92E0ED
:101450000E94DF0468EE73E080E090E00E94B20238
:10146000CECF8BED92E00E94ED04809101050E94A9
:10147000CC048AEE92E00E94ED04809101050E9466
:10148000CC040E9439058130F9F038F08230B9F08F
:101490008330E9F080E493E014C082E193E00E949D
:1014A000DF0481E00E940405863009F440C008F0A2
:1014B00061C1882379F0813009F4BEC0E2C08CECB0
:1014C00091E00E94DF04DDCF8EE193E0FACF82E36A
:1014D00093E0F7CF8EE493E00E94DF048EE593E083
:1014E0000E94DF0460ED77E080E090E00E94B202AD
:1014F0000E9439058230E1F780EA93E00E94ED0412
:10150000809101050E94CC0484EA93E00E94DF04EC
:101510000E943905813009F482C060F0823009F4FC
:1015200079C0833009F47EC080E493E0EFCF8CE68D
:1015300093E08ECF82E193E00E94DF0482E00E947C
:1015400004058630A1F308F015C18111B4CF8EE4F3
:1015500093E00E94DF048CEB93E00E94ED04809105
:1015600001050E94CC042B96FFAE2B97AE01465B83
:101570005F4F61E070E0CE0101960E94EF04CE0162
:1015800001960E948D00CE0101960E94E502811114
:101590004CC08F81873009F048C08A8590E0009761
:1015A00009F047C081ED93E00E94DF0480EA93E0F8
:1015B0000E94ED04809101050E94CC0480910105F8
:1015C0002B96EFAE2B9791E02C969FAF2C972D96F4
:1015D0001FAE2D972E968FAF2E97AE01465B5F4FB5
:1015E00064E070E0CE0101960E94EF04CE01019606
:1015F0000E948D00CE0101960E94E502811117C064
:101600008F818730A1F48A8590E00097E9F48CEF10
:1016100093E01ECF8CEC91E00E94ED0479CF8EE137
:1016200093E074CF82E393E071CF81E0B7CF81E0A4
:10163000EBCF8130910519F48EE193E009CF0A9741
:1016400001F581EE93E004CF81309105A9F38B3051
:10165000910519F484E094E0FBCE489791F485E27B
:1016600094E0F6CE8CE394E00E94DF040E943905FA
:10167000813011F348F0823009F48DC0833009F4D1
:101680008DC080E493E0E4CE82E193E00E94DF0429
:1016900081E00E940405863009F449CF08F06AC051
:1016A000811109CF8EE493E00E94DF042E961FAED5
:1016B0001EAE2E972B96DFAE2B9781E02C968FAF28
:1016C0002C978091AE059091AF052F969FAF2F97E5
:1016D00060968FAF6097AE01465B5F4F66E070E04B
:1016E000CE0101960E94EF04CE0101960E948D006A
:1016F000CE0101960E94E50281119ECF8F81873035
:1017000009F09ACF8B859C859827892798279093F5
:10171000A5058093A4058D859E8598278927982700
:101720009093A7058093A6058A8581112BC08AE531
:1017300094E00E94DF048FE694E00E94ED04609143
:10174000A4057091A50590E080E04AE00E9488041D
:101750008AE794E00E94ED046091A6057091A705C8
:1017600090E080E04AE00E94880484E291E00E94D8
:101770007B0470CE873019F0853109F082CF8CE779
:1017800093E066CE813009F457CF893009F079CFE4
:101790008FE894E05DCE84EA94E05ACE82E393E051
:1017A00057CE86E191E09093DD058093DC05809132
:1017B000FA049091FB048C5D954071F4E091EF0583
:1017C000F091F00590818091F105809589238083C7
:1017D0001092FB041092FA0408950E94F80BA59F42
:1017E000900DB49F900DA49F800D911D112408951C
:1017F000A29FB001B39FC001A39F700D811D112452
:10180000911DB29F700D811D1124911D0895A1E2BB
:101810001A2EAA1BBB1BFD010DC0AA1FBB1FEE1F6A
:10182000FF1FA217B307E407F50720F0A21BB30BB5
:10183000E40BF50B661F771F881F991F1A9469F731
:1018400060957095809590959B01AC01BD01CF018D
:101850000895EE0FFF1F0590F491E02D0994FB0110
:10186000DC0102C001900D9241505040D8F708951C
:1018700010E0C2E6D0E004C0FE010E94290C2196CF
:10188000C336D107C9F7F894FFCF0000000020024B
:1018900040016D016D02DE017C019001000000003D
:1018A0008103400114048003DD03F30368030D0A80
:1018B00000446964206E6F742066696E64206669F6
:1018C0006E6765727072696E742073656E736F7285
:1018D000203A2800466F756E642066696E676572EF
:1018E0007072696E742073656E736F722100536538
:1018F0006E736F7220646F65736E277420636F6EF2
:101900007461696E20616E792066696E67657270B8
:1019100072696E7420646174612E20506C6561730D
:10192000652072756E207468652027656E726F6C15
:101930006C27206578616D706C652E005761697445
:10194000696E6720666F722076616C6964206669D3
:101950006E6765722E2E2E0053656E736F72206354
:101960006F6E7461696E7320002074656D706C61B8
:1019700074657300506C656173652C2063686F6FCC
:1019800073652061207461736B005B315D20456E6F
:10199000726F6C6C20612066696E67657270726927
:1019A0006E74005B325D20566572696679206669E7
:1019B0006E6765727072696E74004C6F6164696EF7
:1019C00067206461746120666F7220456E726F6C6F
:1019D0006C6D656E7400526561647920746F20656A
:1019E0006E726F6C6C20612066696E6765727072D2
:1019F000696E742100506C6561736520747970653F
:101A000020696E207468652049442023202866726E
:101A10006F6D203120746F203132372920796F7536
:101A20002077616E7420746F20736176652074680E
:101A300069732066696E6765722061732E2E2E00B1
:101A4000494420233020697320696E76616C696493
:101A50002100506C656173652C2074727920616778
:101A600061696E2100456E726F6C6C696E6720490A
:101A70004420230057616974696E6720666F722085
:101A800076616C69642066696E67657220746F2088
:101A9000656E726F6C6C206173202300496D616705
:101AA000652074616B656E00436F6D6D756E696363
:101AB0006174696F6E206572726F7200496D616743
:101AC000696E67206572726F7200556E6B6E6F770C
:101AD0006E206572726F7200496D61676520636F79
:101AE0006E7665727465640052656D6F766520660A
:101AF000696E67657200496D61676520746F6F205C
:101B00006D6573737900436F756C64206E6F74201C
:101B100066696E642066696E6765727072696E745C
:101B20002066656174757265730049442000506CCD
:101B30006163652073616D652066696E67657220FB
:101B4000616761696E004372656174696E67206DDB
:101B50006F64656C20666F722023005072696E742A
:101B600073206D617463686564210046696E676502
:101B7000727072696E747320646964206E6F742071
:101B80006D617463680053746F7265642100436F04
:101B9000756C64206E6F742073746F726520696E4B
:101BA0002074686174206C6F636174696F6E0045A6
:101BB00072726F722077726974696E6720746F2019
:101BC000666C617368004C6F6164696E6720646164
:101BD000746120666F72205665726966696361740C
:101BE000696F6E00466F756E642061207072696E59
:101BF00074206D617463682100466F756E642049BE
:101C000044202300207769746820636F6E666964DE
:101C1000656E6365206F662000446964206E6F7492
:101C20002066696E642061206D61746368004E6F88
:101C30002066696E676572206465746563746564A7
:021C40000000A2
:107E0000112484B714BE81FFF0D085E080938100F7
:107E100082E08093C00088E18093C10086E0809377
:107E2000C20080E18093C4008EE0C9D0259A86E02C
:107E300020E33CEF91E0309385002093840096BBD3
:107E4000B09BFECF1D9AA8958150A9F7CC24DD24C4
:107E500088248394B5E0AB2EA1E19A2EF3E0BF2EE7
:107E6000A2D0813461F49FD0082FAFD0023811F036
:107E7000013811F484E001C083E08DD089C08234E0
:107E800011F484E103C0853419F485E0A6D080C0E4
:107E9000853579F488D0E82EFF2485D0082F10E0AE
:107EA000102F00270E291F29000F111F8ED06801E7
:107EB0006FC0863521F484E090D080E0DECF843638
:107EC00009F040C070D06FD0082F6DD080E0C81688
:107ED00080E7D80618F4F601B7BEE895C0E0D1E017
:107EE00062D089930C17E1F7F0E0CF16F0E7DF06D8
:107EF00018F0F601B7BEE89568D007B600FCFDCFD4
:107F0000A601A0E0B1E02C9130E011968C91119780
:107F100090E0982F8827822B932B1296FA010C0160
:107F200087BEE89511244E5F5F4FF1E0A038BF0790
:107F300051F7F601A7BEE89507B600FCFDCF97BE46
:107F4000E89526C08437B1F42ED02DD0F82E2BD052
:107F50003CD0F601EF2C8F010F5F1F4F84911BD097
:107F6000EA94F801C1F70894C11CD11CFA94CF0C13
:107F7000D11C0EC0853739F428D08EE10CD085E9AC
:107F80000AD08FE07ACF813511F488E018D01DD067
:107F900080E101D065CF982F8091C00085FFFCCF94
:107FA0009093C60008958091C00087FFFCCF809118
:107FB000C00084FD01C0A8958091C6000895E0E648
:107FC000F0E098E1908380830895EDDF803219F02E
:107FD00088E0F5DFFFCF84E1DECF1F93182FE3DFCA
:107FE0001150E9F7F2DF1F91089580E0E8DFEE27F6
:047FF000FF270994CA
:027FFE00040479
:00000001FF
