:020000040000FA
:100000000C9463000C948B000C948B000C94CF0721
:100010000C94CF070C94CF070C948B000C948B009E
:100020000C948B000C948B000C948B000C948B0024
:100030000C948B000C948B000C948B000C948B0014
:100040000C9485070C948B000C9453070C942D078B
:100050000C948B000C948B000C948B000C948B00F4
:100060000C948B000C948B0000000008000201002F
:100070000003040700000000000000000000000072
:1000800023002600290000000000240027002A0089
:1000900000000000250028002B00040404040404D0
:1000A0000404020202020202030303030303010227
:1000B00004081020408001020408102001020408F6
:1000C00010209308180C11241FBECFEFD8E0DEBF1C
:1000D000CDBF26E0A4E2B5E001C01D92A736B2076D
:1000E000E1F715E0A0E0B1E0E8E1F9E102C0059038
:1000F0000D92A432B107D9F710E0C2E6D0E004C0F7
:100100002197FE010E94700CC136D107C9F70E94E9
:10011000C1090C947F0C0C940000DF92EF92FF92C7
:100120000F931F93CF93DF93EC0180914206909140
:1001300043066981DC01ED91FC910190F081E02D95
:1001400009958091420690914306DC01ED91FC9166
:100150000190F081E02D688109958091420690918F
:100160004306DC01ED91FC910190F081E02D6A8164
:1001700009958091420690914306DC01ED91FC9136
:100180000190F081E02D6B8109958091420690915C
:100190004306DC01ED91FC910190F081E02D6C8132
:1001A00009958091420690914306DC01ED91FC9106
:1001B0000190F081E02D6D8109958091420690912A
:1001C0004306DC01ED91FC910190F081E02D6E8100
:1001D00009950F8118850E5F1F4F809142069091FF
:1001E0004306E12EFF24DC01ED91FC910190F081AA
:1001F000E02D6E2D09958091420690914306DC0119
:10020000ED91FC910190F081E02D602F09950E0D8C
:100210001F2D111D8E81080F111DD12C80914206BA
:1002200090914306DC01ED91FC910190F081E02D6D
:10023000ED2CF12C2F813885E216F30660F4EC0EDC
:10024000FD1ED70119966C910995F7018185080F5C
:10025000111DD394E3CF612F0995809142069091AF
:100260004306DC01ED91FC910190F081E02D602FBF
:10027000DF91CF911F910F91FF90EF90DF90099444
:10028000AF92BF92CF92DF92EF92FF920F931F93A4
:10029000CF93DF936C017B018B01040F151FEB01E2
:1002A0005E01AE18BF08C017D10759F06991D60199
:1002B000ED91FC910190F081E02DC6010995892B0B
:1002C00079F7C501DF91CF911F910F91FF90EF90CA
:1002D000DF90CF90BF90AF900895FC01538D448D77
:1002E000252F30E0842F90E0821B930B541710F0E1
:1002F000CF96089501970895FC01918D828D9817EE
:1003000061F0A28DAE0FBF2FB11D5D968C91928DC5
:100310009F5F9F73928F90E008958FEF9FEF0895F6
:10032000FC01918D828D981731F0828DE80FF11DBF
:10033000858D90E008958FEF9FEF08952FB7F89483
:1003400080916F0590917005A0917105B091720533
:100350002FBF80937B0590937C05A0937D05B09380
:100360007E0583E795E00E94900197FF26C02FB796
:10037000F89480916F0590917005A0917105B091EE
:1003800072052FBF40917B0550917C0560917D05E2
:1003900070917E05841B950BA60BB70B40917705DA
:1003A000509178056091790570917A0584179507C9
:1003B000A607B707B0F28FEF9FEF0895FC01918D6C
:1003C000228D892F90E0805C9F4F821B91098F7353
:1003D0009927089583E795E00E94DE0121E0892BAB
:1003E00009F420E0822F089580E090E0892B29F025
:1003F0000E94EA0181110C9400000895FC01A48D73
:10040000A80FB92FB11DA35ABF4F2C91848D90E036
:1004100001968F739927848FA689B7892C93A08919
:10042000B1898C91837080648C93938D848D9813A3
:1004300006C00288F389E02D80818F7D8083089536
:10044000EF92FF920F931F93CF93DF93EC0181E024
:10045000888F9B8D8C8D98131AC0E889F9898081CB
:1004600085FF15C09FB7F894EE89FF896083E889FE
:10047000F98980818370806480839FBF81E090E0F0
:10048000DF91CF911F910F91FF90EF900895F62E7D
:100490000B8D10E00F5F1F4F0F731127E02E8C8D17
:1004A0008E110CC00FB607FCFACFE889F98980815C
:1004B00085FFF5CFCE010E94FE01F1CFEB8DEC0F51
:1004C000FD2FF11DE35AFF4FF0829FB7F8940B8F79
:1004D000EA89FB8980818062CFCFCF93DF93EC01E3
:1004E000888D8823B9F0AA89BB89E889F9898C911C
:1004F00085FD03C0808186FD0DC00FB607FCF7CFD8
:100500008C9185FFF2CF808185FFEDCFCE010E94D7
:10051000FE01E9CFDF91CF9108953FB7F894809124
:10052000690590916A05A0916B05B0916C0526B59F
:10053000A89B05C02F3F19F00196A11DB11D3FBF1B
:10054000BA2FA92F982F8827BC01CD01620F711DEA
:10055000811D911D42E0660F771F881F991F4A95E4
:10056000D1F708958F929F92AF92BF92CF92DF9270
:10057000EF92FF926B017C010E948D024B015C01A6
:10058000C114D104E104F104B9F00E948D0268198C
:1005900079098A099B09683E73408105910580F3BA
:1005A00021E0C21AD108E108F10888EE880E83E044
:1005B000981EA11CB11CE4CFFF90EF90DF90CF906C
:1005C000BF90AF909F908F900895EF92FF920F93FE
:1005D0001F93CF93DF93EC01F12CE12C10E000E0AE
:1005E0008091420690914306DC01ED91FC910084DC
:1005F000F185E02D0995892B99F461E070E080E0A8
:1006000090E00E94B202BFEFEB1AFB0A88EEE816F8
:1006100083E0F80628F38FEF37C002E010E0E0CF68
:100620008091420690914306DC01ED91FC91028499
:10063000F385E02D09950930110508F03CC0F8015B
:10064000EC5DFC4F0C94700C2D033B034B034B03F0
:100650004B034B035003520355038F3E09F0C0CFA9
:1006600018828983C8010196065F1F4F0034110567
:1006700050F48C01B5CF28813981282B3983288308
:1006800021303F4E51F28EEFDF91CF911F910F91AC
:10069000FF90EF900895FE01E00FF11F8083E2CFFD
:1006A0008E83E0CF1F828887DDCF2F813885282B6E
:1006B00038872F83D7CFFE01E00FF11F80832F8172
:1006C0003885C80108978217930761F680E0DCCF70
:1006D00020916605309167052817390771F49091CC
:1006E000650580916405981741F0E0916505F0E09B
:1006F000EC5DFA4F808190E008958FEF9FEF0895B1
:100700000895EF92FF920F931F93CF93DF93DC0135
:100710005C96ED90FC905D97E114F10479F481E032
:1007200090E013969C938E93129790E080E0DF9177
:10073000CF911F910F91FF90EF9008955196ED91F9
:10074000FC91529750968C915097982F90950FB797
:100750005E962C915E97122F127021FD6095F89491
:100760002081112319F1282B2083E7012197F1F72C
:1007700028E0462F50E0308160FF1AC0382B3083CC
:10078000E7012197F1F7BA0175956795215089F72F
:10079000112381F08081892380830FBF5C968D9126
:1007A0009C910197F1F781E090E0C1CF2923DCCF44
:1007B0003923E5CF9081892BEFCF209166053091C9
:1007C00067052817390761F4809164052091650554
:1007D00090E0805C9F4F821B91098F739927089549
:1007E00090E080E008952091660530916705281714
:1007F0003907B9F49091650580916405981789F0DF
:10080000E0916505F0E0EC5DFA4F8081209165058F
:1008100030E02F5F3F4F2F7333272093650590E023
:1008200008958FEF9FEF089590E080E00895CF92B4
:10083000DF92EF92FF92CF9383E795E00E94DE0173
:10084000892BD1F30E949E01FC0197FD50C08D328F
:10085000910521F0C0970A9708F042C0C12CD12C15
:100860007601C0E0E130F105D1F0ED32F105E9F1BA
:10087000CF01C0970A9798F4AAE0B0E0A7019601CB
:100880000E94340C6F01FF0FEE08FF08C60ED71E42
:10089000E81EF91E80E3C81AD108E108F10883E7D1
:1008A00095E00E947C010E949E01FC01C0970A977E
:1008B000C8F2E130F105B1F2CC2341F0F094E094BC
:1008C000D094C094C11CD11CE11CF11CCC2009F4B3
:1008D000B3CF8C2DCF91FF90EF90DF90CF90089504
:1008E00083E795E00E947C01ADCFC1E0D8CFC12C59
:1008F000D12C7601EBCFFC0101900020E9F7319774
:10090000AF01481B590BBC0183E795E00C944001F3
:100910008F929F92AF92BF920F931F93CF93DF93CB
:10092000CDB7DEB7A1970FB6F894DEBF0FBECDBF2F
:1009300019A2423008F44AE08E010F5D1F4F842E49
:10094000912CB12CA12CA50194010E944E0CE62FF4
:10095000B901CA01EA30F4F4E05DD801EE938D01EB
:10096000232B242B252B79F790E080E0109719F0AA
:10097000CD010E947B04A1960FB6F894DEBF0FBE96
:10098000CDBFDF91CF911F910F91BF90AF909F90FE
:100990008F900895E95CE1CFCF93DF93D0E0C0E082
:1009A000009719F00E947B04EC0184E291E00E9420
:1009B0007B048C0F9D1FDF91CF9108950C947B04D5
:1009C000CF93DF93682F70E090E080E04AE00E94D0
:1009D0008804EC0184E291E00E947B048C0F9D1F4F
:1009E000DF91CF910895FC019B01BA0181E09FEE58
:1009F0009183808381E08683308727838FEF828392
:100A0000838384838583A901CF0109960C94760C96
:100A1000CF93DF93CDB7DEB7CB54D1090FB6F8949F
:100A2000DEBF0FBECDBF92E02B969FAF2B972C96CB
:100A30008FAF2C97AE01465B5F4F62E070E0CE0156
:100A400001960E94F304CE0101960E948D00CE0112
:100A500001960E94E50281110EC08F81873059F402
:100A60008A85C55BDF4F0FB6F894DEBF0FBECDBFE2
:100A7000DF91CF91089581E0F4CFCF93DF93CDB78D
:100A8000DEB7CA54D1090FB6F894DEBF0FBECDBF92
:100A900081E02B968FAF2B97AE01465B5F4F61E0F5
:100AA00070E0CE0101960E94F304CE0101960E94EF
:100AB0008D00CE0101960E94E50281110EC08F814A
:100AC000873059F48A85C65BDF4F0FB6F894DEBFD6
:100AD0000FBECDBFDF91CF91089581E0F4CFCF93CA
:100AE000DF93CDB7DEB7CA54D1090FB6F894DEBF95
:100AF0000FBECDBF8DE12B968FAF2B97AE01465B1E
:100B00005F4F61E070E0CE0101960E94F304CE01D8
:100B100001960E948D00CE0101960E94E50281118E
:100B200017C08F818730A1F48B859C8598278927F2
:100B3000982790931506809314068A85C65BDF4F2D
:100B40000FB6F894DEBF0FBECDBFDF91CF910895F1
:100B500081E0F4CF0F931F93CF93DF93CDB7DEB730
:100B6000CE54D1090FB6F894DEBF0FBECDBFE091D1
:100B70008305F091840502E00083E0917F05F09108
:100B800080051082E0918105F09182058FEC8083D1
:100B900010928B05E0918705F091880516E010838F
:100BA000E0918505F0918605808180618083E091E8
:100BB0008505F0918605808188608083E0918505B8
:100BC000F0918605808180688083E0918505F091B1
:100BD000860580818F7D808368EE73E080E090E001
:100BE0000E94B202E0914606F0914706309731F13B
:100BF000A089B1890C93A089B1891C92A485B5857F
:100C00001C92A685B78580E18C93108EA489B58946
:100C10001C93A289B3898C9180618C93A289B3893A
:100C20008C9188608C93A289B3898C9180688C9315
:100C30000288F389E02D80818F7D8083E0914406D6
:100C4000F0914506309709F477C0138E128E118EFD
:100C5000108E178A168A82E490E0958F848F84859F
:100C6000863108F03DC02FE030E0378B268B20E442
:100C700030E0318F208F27E230E0338F228F909148
:100C80006800883008F48EC021E08E3008F420E03F
:100C900081E001C0880F2A95EAF7892B80936800CC
:100CA00094852DE630E0983050F02BE630E09E3011
:100CB00030F02CE630E0963110F030E020E0348B5C
:100CC000238B292F30E0983008F06EC081E001C0FE
:100CD000880F9A95EAF7858B848D958D0197F1F7AA
:100CE000828D938D892B41F1409166055091670566
:100CF000E417F50709F14115510569F0DA0153963A
:100D00002D913C91D9019C91DA0155968C91809559
:100D10008923D9018C93868D8E7F868F10926405EE
:100D200010926505F0936705E0936605A389B48981
:100D30008C919589892B8C9383E12B968FAF2B9780
:100D40008091260690912706209128063091290649
:100D50002C963FAF2C972D962FAF2D972E969FAFA9
:100D60002E972F968FAF2F97AE01465B5F4F65E0B2
:100D700070E0CE0101960E94F304CE0101960E941C
:100D80008D00CE0101960E94E5028823D1F087E212
:100D900091E00E94CC0461E070E080E090E00E946D
:100DA000B202F9CF84E079CF9E3040F42850310967
:100DB00081E001C0880F2A95EAF78DCF2E503109C6
:100DC000F7CF8F81873019F78A858111E0CF8AE4C8
:100DD00091E00E94CC040E946F05809114069091CE
:100DE0001506892B21F584E691E00E94DE048AEE47
:100DF00091E00E94CC0480E092E00E94CC0489E162
:100E000092E00E94CC0480E392E00E94CC040E9415
:100E1000170480936E05C25BDF4F0FB6F894DEBFF8
:100E20000FBECDBFDF91CF911F910F91089582EB3F
:100E300091E00E94CC048EEC91E00E94DE0460916F
:100E400014067091150690E080E04AE00E94880444
:100E50008FED91E00E94CC04CACF1F920F920FB683
:100E60000F9211242F933F934F935F936F937F9330
:100E70008F939F93AF93BF93EF93FF9383E795E097
:100E80000E94FE01FF91EF91BF91AF919F918F91D1
:100E90007F916F915F914F913F912F910F900FBE76
:100EA0000F901F9018951F920F920FB60F9211245A
:100EB0002F938F939F93EF93FF93E0918305F0918E
:100EC00084058081E0918905F0918A0582FD1BC02F
:100ED000908180918C058F5F8F7320918D05821793
:100EE00041F0E0918C05F0E0ED58FA4F958F80933A
:100EF0008C05FF91EF919F918F912F910F900FBED5
:100F00000F901F9018958081F4CF1F920F920FB60B
:100F10000F9211242F933F938F939F93AF93BF937F
:100F200080916F0590917005A0917105B091720547
:100F30003091680523E0230F2D3758F50196A11D48
:100F4000B11D2093680580936F0590937005A09361
:100F50007105B09372058091690590916A05A09121
:100F60006B05B0916C050196A11DB11D80936905BB
:100F700090936A05A0936B05B0936C05BF91AF91F8
:100F80009F918F913F912F910F900FBE0F901F90C7
:100F9000189526E8230F0296A11DB11DD2CF1F92EE
:100FA0000F920FB60F9211242F933F934F935F939D
:100FB0006F937F938F939F93AF93BF93EF93FF9321
:100FC000E0916605F0916705309749F0A685B785F1
:100FD0008585968D91FF14C09C918923A1F4FF9182
:100FE000EF91BF91AF919F918F917F916F915F91A1
:100FF0004F913F912F910F900FBE0F901F9018951A
:101000009C91892361F7A389B4899C9185898095F6
:1010100089238C93868997890197F1F7608D718D6B
:10102000A685B785558538E020E0CB010197F1F71B
:10103000822F90E095958795282F4C91452309F0B4
:101040002068315091F7868D81FD2095809164054F
:1010500090E001968F73992730916505381799F0C4
:10106000A0916405B0E0AC5DBA4F2C938093640509
:10107000828D938D0197F1F7A389B4898C9195891D
:10108000892B8C93ACCF868D8160868FF1CF90E0D9
:10109000FC01E859FF4F2491FC01E255FF4F3491C8
:1010A000FC01E656FF4FE491EE23C9F0222339F00C
:1010B000233001F1A8F4213019F1223029F1F0E0B8
:1010C000EE0FFF1FE057FF4FA591B4918FB7F89433
:1010D000EC91611126C030953E233C938FBF08955B
:1010E0002730A9F02830C9F0243049F780918000DA
:1010F0008F7D03C0809180008F7780938000DFCF49
:1011000084B58F7784BDDBCF84B58F7DFBCF809195
:10111000B0008F778093B000D2CF8091B0008F7DE8
:10112000F9CF3E2BDACF0F931F93CF93DF9310921B
:1011300076051092750588EE93E0A0E0B0E080930C
:10114000770590937805A0937905B0937A0524E00C
:1011500031E0309374052093730525EC30E0309333
:10116000800520937F0524EC30E0309382052093A6
:10117000810520EC30E0309384052093830521EC39
:1011800030E0309386052093850522EC30E03093E3
:1011900088052093870526EC30E030938A0520935C
:1011A000890510928C0510928D0510928E05109273
:1011B0008F0510924B0610924A0680934C0690932E
:1011C0004D06A0934E06B0934F0686E191E09093B2
:1011D00049068093480610925F0610925E061092B0
:1011E00061061092600610926306109262061092D9
:1011F000650610926406609166066E7F6D7F60934F
:1012000066066695617081E0682783E00E94470862
:1012100041EB50E0FA0164918DE990E0FC012491EA
:10122000222399F030E0220F331FF901EA57FF4FD4
:10123000A591B491F901E057FF4F259134912FB753
:10124000F8943C91632B6C932FBFFA014491409327
:101250005806FC018491E82FF0E0EE0FFF1FE057E5
:10126000FF4F8591949190935A068093590600EB15
:1012700010E0F8012491CCE9D0E0FE0184918823AC
:10128000C9F090E0880F991FFC01EA57FF4FA59124
:10129000B491FC01E057FF4F459154913FB7F8944A
:1012A0009C91822F809598239C93FA0190818923A9
:1012B00080833FBF8091660681FD04C061E082E0CB
:1012C0000E94470888E496E022E020935406F80143
:1012D000049100935506FE01C491EC2FF0E0EE0F4F
:1012E000FF1FE458FF4F2591349130935706209308
:1012F00056061092170610921606109219061092B2
:10130000180620E430E030931B0620931A06109252
:101310001D0610921C064FEF5FEFBA0140931E06A8
:1013200050931F0660932006709321063093230686
:101330002093220620E031EE3093250620932406E8
:10134000109226061092270610922806109229065F
:1013500040932A0650932B0660932C0670932D061B
:1013600010924706109246069093450680934406D5
:101370009093430680934206DF91CF911F910F9186
:101380000895CF93DF93CDB7DEB7CF54D1090FB611
:10139000F894DEBF0FBECDBF789484B5826084BD63
:1013A00084B5816084BD85B5826085BD85B5816069
:1013B00085BD80916E00816080936E0010928100E7
:1013C00080918100826080938100809181008160A2
:1013D0008093810080918000816080938000809163
:1013E000B10084608093B1008091B00081608093EF
:1013F000B00080917A00846080937A0080917A00B6
:10140000826080937A0080917A00816080937A0074
:1014100080917A00806880937A001092C1000E94C7
:10142000AA0585E0F82E96E0E92E24E0D22E3DE0D4
:10143000C32E00E010E080916E058130C1F080F095
:10144000823009F436C1833009F4D2C10115110587
:1014500091F30E94EA01882371F30E940000E9CF12
:1014600060E070E0CB010E94B2020E94AA0580E514
:1014700092E00E94CC048CE692E00E94CC048BE8BF
:1014800092E00E94CC040E94170480936D058111A4
:101490000FC086ED92E00E94CC0488EE92E00E949C
:1014A000CC0468EE73E080E090E00E94B202CECF00
:1014B0008BEF92E00E94DE0480916D050E94E004B3
:1014C0008AE093E00E94DE0480916D050E94E004B2
:1014D0000E943D058130F9F038F08230B9F0833058
:1014E000E9F080E693E014C082E393E00E94CC042C
:1014F00081E00E940805863009F440C008F061C10F
:10150000882379F0813009F4BEC0E2C08CEC91E010
:101510000E94CC04DDCF8EE393E0FACF82E593E026
:10152000F7CF8EE693E00E94CC048EE793E00E9412
:10153000CC0460ED77E080E090E00E94B2020E946F
:101540003D058230E1F780EC93E00E94DE0480915B
:101550006D050E94E00484EC93E00E94CC040E949C
:101560003D05813009F482C060F0823009F479C011
:10157000833009F47EC080E693E0EFCF8CE893E0FF
:101580008ECF82E393E00E94CC0482E00E940805A3
:101590008630A1F308F015C18111B4CF8EE693E037
:1015A0000E94CC048CED93E00E94DE0480916D05D6
:1015B0000E94E0042B96FFAE2B97AE01465B5F4F77
:1015C00061E070E0CE0101960E94F304CE01019625
:1015D0000E948D00CE0101960E94E50281114CC04F
:1015E0008F81873009F048C08A8590E0009709F024
:1015F00047C081EF93E00E94CC0480EC93E00E940E
:10160000DE0480916D050E94E00480916D052B96AB
:10161000EFAE2B9791E02C969FAF2C972D961FAE97
:101620002D972E968FAF2E97AE01465B5F4F64E0ED
:1016300070E0CE0101960E94F304CE0101960E9453
:101640008D00CE0101960E94E502811117C08F81A5
:101650008730A1F48A8590E00097E9F48CE194E06A
:101660001ECF8CEC91E00E94DE0479CF8EE393E0F4
:1016700074CF82E593E071CF81E0B7CF81E0EBCF0B
:101680008130910519F48EE393E009CF0A9701F5B3
:1016900081E094E004CF81309105A9F38B3091056E
:1016A00019F484E294E0FBCE489791F485E494E049
:1016B000F6CE8CE594E00E94CC040E943D0581307A
:1016C00011F348F0823009F48DC0833009F48DC0E5
:1016D00080E693E0E4CE82E393E00E94CC0481E0D4
:1016E0000E940805863009F449CF08F06AC08111CC
:1016F00009CF8EE693E00E94CC042E961FAE1EAE5C
:101700002E972B96DFAE2B9781E02C968FAF2C97E0
:1017100080911A0690911B062F969FAF2F97609687
:101720008FAF6097AE01465B5F4F66E070E0CE0121
:1017300001960E94F304CE0101960E948D00CE0115
:1017400001960E94E50281119ECF8F81873009F0BA
:101750009ACF8B859C859827892798279093110687
:10176000809310068D859E859827892798279093CA
:101770001306809312068A8581112BC08AE794E0B4
:101780000E94CC048FE894E00E94DE046091100671
:101790007091110690E080E04AE00E9488048AE996
:1017A00094E00E94DE04609112067091130690E0AE
:1017B00080E04AE00E94880484E291E00E947B0479
:1017C00070CE873019F0853109F082CF8CE993E033
:1017D00066CE813009F457CF893009F079CF8FEA8E
:1017E00094E05DCE84EC94E05ACE82E593E057CE4F
:1017F00087ED94E00E94CC040E946F0590E0835036
:101800009B4F0E94CC042B96CFAE2B97AE01465B2C
:101810005F4F61E070E0CE0101960E94F304CE01BB
:1018200001960E948D00CE0101960E94E50239CEFC
:1018300086E191E090934906809348068091660581
:10184000909167058854964071F4E0915B06F091A1
:101850005C06908180915D0680958923808310923B
:1018600067051092660508950E943F0CA59F900D94
:10187000B49F900DA49F800D911D11240895A29FE7
:10188000B001B39FC001A39F700D811D1124911D54
:10189000B29F700D811D1124911D0895A1E21A2E91
:1018A000AA1BBB1BFD010DC0AA1FBB1FEE1FFF1F04
:1018B000A217B307E407F50720F0A21BB30BE40B54
:1018C000F50B661F771F881F991F1A9469F760959B
:1018D0007095809590959B01AC01BD01CF01089555
:1018E000EE0FFF1F0590F491E02D0994FB01DC0140
:1018F00002C001900D9241505040D8F7089510E079
:10190000C2E6D0E004C0FE010E94700C2196C336EE
:10191000D107C9F7F894FFCF000000002002400172
:101920006D016D02DE017C01900100000000810369
:10193000400114048003DD03F30368030D0A00442F
:101940006964206E6F742066696E642066696E67D4
:1019500065727072696E742073656E736F72203A6F
:101960002800466F756E642066696E6765727072D6
:10197000696E742073656E736F72210053656E73A8
:101980006F7220646F65736E277420636F6E74616D
:10199000696E20616E792066696E67657270726922
:1019A0006E7420646174612E20506C6561736520D3
:1019B00072756E207468652027656E726F6C6C2777
:1019C000206578616D706C652E0057616974696E71
:1019D0006720666F722076616C69642066696E6745
:1019E00065722E2E2E0053656E736F7220636F6EBC
:1019F0007461696E7320002074656D706C6174652C
:101A00007300506C656173652C2063686F6F73653C
:101A10002061207461736B005B315D20456E726FD5
:101A20006C6C20612066696E6765727072696E7495
:101A3000005B325D205665726966792066696E6763
:101A400065727072696E74005B335D2052656D6FF4
:101A5000766520616C6C2066696E6765727072696C
:101A60006E742064617461004C6F6164696E6720FC
:101A70006461746120666F7220456E726F6C6C6D6C
:101A8000656E7400526561647920746F20656E72B2
:101A90006F6C6C20612066696E6765727072696E2A
:101AA000742100506C6561736520747970652069DC
:101AB0006E207468652049442023202866726F6D6B
:101AC000203120746F203132372920796F752077CB
:101AD000616E7420746F2073617665207468697319
:101AE0002066696E6765722061732E2E2E00494450
:101AF00020233020697320696E76616C696421004F
:101B0000506C656173652C2074727920616761691E
:101B10006E2100456E726F6C6C696E6720494420BF
:101B2000230057616974696E6720666F7220766161
:101B30006C69642066696E67657220746F20656EDB
:101B4000726F6C6C206173202300496D61676520A2
:101B500074616B656E00436F6D6D756E6963617462
:101B6000696F6E206572726F7200496D6167696E90
:101B700067206572726F7200556E6B6E6F776E20A4
:101B80006572726F7200496D61676520636F6E7672
:101B900065727465640052656D6F76652066696E66
:101BA00067657200496D61676520746F6F206D65B0
:101BB00073737900436F756C64206E6F742066696F
:101BC0006E642066696E6765727072696E742066F5
:101BD000656174757265730049442000506C6163DF
:101BE000652073616D652066696E67657220616747
:101BF00061696E004372656174696E67206D6F6420
:101C0000656C20666F722023005072696E747320B9
:101C10006D617463686564210046696E6765727002
:101C200072696E747320646964206E6F74206D61D4
:101C30007463680053746F7265642100436F756C40
:101C400064206E6F742073746F726520696E2074E7
:101C5000686174206C6F636174696F6E00457272A5
:101C60006F722077726974696E6720746F20666C7A
:101C7000617368004C6F6164696E672064617461B0
:101C800020666F7220566572696669636174696F58
:101C90006E00466F756E642061207072696E7420EC
:101CA0006D617463682100466F756E64204944203D
:101CB0002300207769746820636F6E666964656EBF
:101CC0006365206F662000446964206E6F7420662F
:101CD000696E642061206D61746368004E6F2066D8
:101CE000696E676572206465746563746564000A73
:101CF0000A44656C6574696E6720616C6C20666966
:101D00006E6765727072696E742074656D706C6157
:101D100074657321004E756D626572206F66206672
:101D2000696E6765727072696E7420646174612097
:0C1D3000746F2064656C6574653A2000D7
:107E0000112484B714BE81FFF0D085E080938100F7
:107E100082E08093C00088E18093C10086E0809377
:107E2000C20080E18093C4008EE0C9D0259A86E02C
:107E300020E33CEF91E0309385002093840096BBD3
:107E4000B09BFECF1D9AA8958150A9F7CC24DD24C4
:107E500088248394B5E0AB2EA1E19A2EF3E0BF2EE7
:107E6000A2D0813461F49FD0082FAFD0023811F036
:107E7000013811F484E001C083E08DD089C08234E0
:107E800011F484E103C0853419F485E0A6D080C0E4
:107E9000853579F488D0E82EFF2485D0082F10E0AE
:107EA000102F00270E291F29000F111F8ED06801E7
:107EB0006FC0863521F484E090D080E0DECF843638
:107EC00009F040C070D06FD0082F6DD080E0C81688
:107ED00080E7D80618F4F601B7BEE895C0E0D1E017
:107EE00062D089930C17E1F7F0E0CF16F0E7DF06D8
:107EF00018F0F601B7BEE89568D007B600FCFDCFD4
:107F0000A601A0E0B1E02C9130E011968C91119780
:107F100090E0982F8827822B932B1296FA010C0160
:107F200087BEE89511244E5F5F4FF1E0A038BF0790
:107F300051F7F601A7BEE89507B600FCFDCF97BE46
:107F4000E89526C08437B1F42ED02DD0F82E2BD052
:107F50003CD0F601EF2C8F010F5F1F4F84911BD097
:107F6000EA94F801C1F70894C11CD11CFA94CF0C13
:107F7000D11C0EC0853739F428D08EE10CD085E9AC
:107F80000AD08FE07ACF813511F488E018D01DD067
:107F900080E101D065CF982F8091C00085FFFCCF94
:107FA0009093C60008958091C00087FFFCCF809118
:107FB000C00084FD01C0A8958091C6000895E0E648
:107FC000F0E098E1908380830895EDDF803219F02E
:107FD00088E0F5DFFFCF84E1DECF1F93182FE3DFCA
:107FE0001150E9F7F2DF1F91089580E0E8DFEE27F6
:047FF000FF270994CA
:027FFE00040479
:00000001FF
